{
  "contractName": "OracleManager",
  "abi": [
    {
      "anonymous": false,
      "inputs": [],
      "name": "added",
      "type": "event"
    },
    {
      "inputs": [],
      "name": "initialized",
      "outputs": [
        {
          "internalType": "bool",
          "name": "",
          "type": "bool"
        }
      ],
      "stateMutability": "view",
      "type": "function",
      "constant": true
    },
    {
      "inputs": [],
      "name": "task_manager",
      "outputs": [
        {
          "internalType": "address",
          "name": "",
          "type": "address"
        }
      ],
      "stateMutability": "view",
      "type": "function",
      "constant": true
    },
    {
      "inputs": [],
      "name": "user_manager",
      "outputs": [
        {
          "internalType": "contract UserManager",
          "name": "",
          "type": "address"
        }
      ],
      "stateMutability": "view",
      "type": "function",
      "constant": true
    },
    {
      "inputs": [
        {
          "internalType": "string",
          "name": "id",
          "type": "string"
        }
      ],
      "name": "fetch_oracle",
      "outputs": [
        {
          "internalType": "contract Oracle",
          "name": "",
          "type": "address"
        }
      ],
      "stateMutability": "view",
      "type": "function",
      "constant": true
    },
    {
      "inputs": [
        {
          "internalType": "address",
          "name": "user",
          "type": "address"
        }
      ],
      "name": "fetch_collection",
      "outputs": [
        {
          "internalType": "string[]",
          "name": "",
          "type": "string[]"
        }
      ],
      "stateMutability": "view",
      "type": "function",
      "constant": true
    },
    {
      "inputs": [
        {
          "internalType": "string",
          "name": "id",
          "type": "string"
        },
        {
          "internalType": "uint256",
          "name": "price",
          "type": "uint256"
        }
      ],
      "name": "create",
      "outputs": [],
      "stateMutability": "nonpayable",
      "type": "function"
    },
    {
      "inputs": [
        {
          "internalType": "address",
          "name": "_user_manager",
          "type": "address"
        },
        {
          "internalType": "address",
          "name": "_task_manager",
          "type": "address"
        }
      ],
      "name": "init",
      "outputs": [],
      "stateMutability": "nonpayable",
      "type": "function"
    },
    {
      "inputs": [
        {
          "internalType": "string",
          "name": "id",
          "type": "string"
        }
      ],
      "name": "exists",
      "outputs": [
        {
          "internalType": "bool",
          "name": "",
          "type": "bool"
        }
      ],
      "stateMutability": "view",
      "type": "function",
      "constant": true
    }
  ],
  "bytecode": "0x60806040526003805460ff60a01b1916905534801561001d57600080fd5b506113138061002d6000396000f3fe608060405234801561001057600080fd5b50600436106100885760003560e01c806346f81a871161005b57806346f81a87146100fe5780639eeb67c414610113578063b17f7d311461011b578063f09a40161461012357610088565b8063158ef93e1461008d5780631aef016b146100ab5780631f3b23ce146100cb578063261a323e146100eb575b600080fd5b610095610136565b6040516100a291906107d5565b60405180910390f35b6100be6100b93660046106af565b610146565b6040516100a29190610749565b6100de6100d936600461063c565b610178565b6040516100a2919061075d565b6100956100f93660046106af565b610266565b61011161010c3660046106ea565b6102a5565b005b6100be61047c565b6100be61048b565b61011161013136600461065d565b61049a565b600354600160a01b900460ff1681565b60008082604051610157919061072d565b908152604051908190036020019020546001600160a01b031690505b919050565b6001600160a01b0381166000908152600160209081526040808320805482518185028101850190935280835260609492939192909184015b8282101561025b5760008481526020908190208301805460408051601f60026000196101006001871615020190941693909304928301859004850281018501909152818152928301828280156102475780601f1061021c57610100808354040283529160200191610247565b820191906000526020600020905b81548152906001019060200180831161022a57829003601f168201915b5050505050815260200190600101906101b0565b505050509050919050565b60008082604051610277919061072d565b908152604051908190036020019020546001600160a01b03161561029d57506001610173565b506000610173565b600354600160a01b900460ff166102d75760405162461bcd60e51b81526004016102ce90610891565b60405180910390fd5b600254604051637b51e92760e11b81526001600160a01b039091169063f6a3d24e90610307903390600401610749565b60206040518083038186803b15801561031f57600080fd5b505afa158015610333573d6000803e3d6000fd5b505050506040513d601f19601f82011682018060405250810190610357919061068f565b6103735760405162461bcd60e51b81526004016102ce90610825565b61037c82610266565b156103995760405162461bcd60e51b81526004016102ce9061085a565b600354604051829133916001600160a01b03909116906103b890610502565b6103c4939291906108d2565b604051809103906000f0801580156103e0573d6000803e3d6000fd5b506000836040516103f1919061072d565b908152604080516020928190038301902080546001600160a01b0319166001600160a01b0394909416939093179092553360009081526001808352928120805493840181558152819020845161044e93919091019185019061050f565b506040517fc87542064bc1930c362cb7f85a979ab1051627291e7db73dfda0f48bca40548190600090a15050565b6002546001600160a01b031681565b6003546001600160a01b031681565b600354600160a01b900460ff16156104c45760405162461bcd60e51b81526004016102ce906107e0565b600280546001600160a01b03199081166001600160a01b039485161790915560038054600160a01b9216929093169190911760ff60a01b1916179055565b6109bc8061092283390190565b828054600181600116156101000203166002900490600052602060002090601f016020900481019282610545576000855561058b565b82601f1061055e57805160ff191683800117855561058b565b8280016001018555821561058b579182015b8281111561058b578251825591602001919060010190610570565b5061059792915061059b565b5090565b5b80821115610597576000815560010161059c565b80356001600160a01b038116811461017357600080fd5b600082601f8301126105d7578081fd5b813567ffffffffffffffff808211156105ec57fe5b604051601f8301601f19168101602001828111828210171561060a57fe5b604052828152848301602001861015610621578384fd5b82602086016020830137918201602001929092529392505050565b60006020828403121561064d578081fd5b610656826105b0565b9392505050565b6000806040838503121561066f578081fd5b610678836105b0565b9150610686602084016105b0565b90509250929050565b6000602082840312156106a0578081fd5b81518015158114610656578182fd5b6000602082840312156106c0578081fd5b813567ffffffffffffffff8111156106d6578182fd5b6106e2848285016105c7565b949350505050565b600080604083850312156106fc578182fd5b823567ffffffffffffffff811115610712578283fd5b61071e858286016105c7565b95602094909401359450505050565b6000825161073f8184602087016108f1565b9190910192915050565b6001600160a01b0391909116815260200190565b6000602080830181845280855180835260408601915060408482028701019250838701855b828110156107c857878503603f19018452815180518087526107a9818989018a85016108f1565b601f01601f191695909501860194509285019290850190600101610782565b5092979650505050505050565b901515815260200190565b60208082526025908201527f636f6e74726163742068617320616c7265616479206265656e20696e697469616040820152641b1a5e995960da1b606082015260800190565b6020808252818101527f796f75206e65656420746f206265206120726567697374657265642075736572604082015260600190565b60208082526019908201527f6964656e74696669657220616c72656164792065786973747300000000000000604082015260600190565b60208082526021908201527f636f6e747261637420686173206e6f74206265656e20696e697469616c697a656040820152601960fa1b606082015260800190565b9283526001600160a01b03918216602084015216604082015260600190565b60005b8381101561090c5781810151838201526020016108f4565b8381111561091b576000848401525b5050505056fe608060405234801561001057600080fd5b506040516109bc3803806109bc83398101604081905261002f91610082565b600292909255600080546001600160a01b039283166001600160a01b031991821617909155600180549290931691161790556100bd565b80516001600160a01b038116811461007d57600080fd5b919050565b600080600060608486031215610096578283fd5b835192506100a660208501610066565b91506100b460408501610066565b90509250925092565b6108f0806100cc6000396000f3fe608060405234801561001057600080fd5b50600436106100f55760003560e01c80638da5cb5b11610097578063b17f7d3111610066578063b17f7d31146101a7578063d52cf8ba146101af578063e639e4a6146101c2578063e7869fad146101d5576100f5565b80638da5cb5b1461017a5780639d9a7fe9146101825780639f2c52df14610197578063a035b1fe1461019f576100f5565b80633afd1b67116100d35780633afd1b671461014d57806350454d89146101555780637882ece11461015d57806379502c5514610165576100f5565b806302fb0c5e146100fa578063176e82851461011857806331c3a3e01461012d575b600080fd5b6101026101ea565b60405161010f9190610808565b60405180910390f35b61012b6101263660046106b0565b6101f3565b005b61014061013b36600461078f565b610288565b60405161010f91906107a7565b61012b6102b2565b61012b610307565b61010261035c565b61016d61036a565b60405161010f9190610813565b6101406103f8565b61018a610407565b60405161010f9190610891565b61012b61040d565b61018a61046b565b610140610471565b61012b6101bd3660046106d1565b610480565b61012b6101d03660046106fa565b610539565b6101dd610591565b60405161010f91906107bb565b60045460ff1681565b6001546001600160a01b031633146102265760405162461bcd60e51b815260040161021d90610866565b60405180910390fd5b6003805460018101825560009182527fc2575a0e9e593c00f959f8c92f12db2869c3395a3b0502d05e2516446f71f85b0180546001600160a01b0319166001600160a01b03841617905560405160008051602061089b8339815191529190a150565b6003818154811061029857600080fd5b6000918252602090912001546001600160a01b0316905081565b6000546001600160a01b031633146102dc5760405162461bcd60e51b815260040161021d90610866565b6004805460ff19811660ff9091161517905560405160008051602061089b83398151915290600090a1565b6000546001600160a01b031633146103315760405162461bcd60e51b815260040161021d90610866565b6040517ff4f20ac0c2476401ad86d69786801023c519552a2881ba07b43fd752fafd58ec90600090a1565b600454610100900460ff1681565b6005805460408051602060026001851615610100026000190190941693909304601f810184900484028201840190925281815292918301828280156103f05780601f106103c5576101008083540402835291602001916103f0565b820191906000526020600020905b8154815290600101906020018083116103d357829003601f168201915b505050505081565b6000546001600160a01b031681565b60065481565b6000546001600160a01b031633146104375760405162461bcd60e51b815260040161021d90610866565b6004805461ff001981166101009182900460ff161590910217905560405160008051602061089b83398151915290600090a1565b60025481565b6001546001600160a01b031681565b6001546001600160a01b031633146104aa5760405162461bcd60e51b815260040161021d90610866565b60005b60035481101561053457826001600160a01b0316600382815481106104ce57fe5b6000918252602090912001546001600160a01b0316141561052c57600381815481106104f657fe5b6000918252602082200180546001600160a01b0319169055600680548401905560405160008051602061089b8339815191529190a15b6001016104ad565b505050565b6000546001600160a01b031633146105635760405162461bcd60e51b815260040161021d90610866565b80516105769060059060208401906105f3565b5060405160008051602061089b83398151915290600090a150565b606060038054806020026020016040519081016040528092919081815260200182805480156105e957602002820191906000526020600020905b81546001600160a01b031681526001909101906020018083116105cb575b5050505050905090565b828054600181600116156101000203166002900490600052602060002090601f016020900481019282610629576000855561066f565b82601f1061064257805160ff191683800117855561066f565b8280016001018555821561066f579182015b8281111561066f578251825591602001919060010190610654565b5061067b92915061067f565b5090565b5b8082111561067b5760008155600101610680565b80356001600160a01b03811681146106ab57600080fd5b919050565b6000602082840312156106c1578081fd5b6106ca82610694565b9392505050565b600080604083850312156106e3578081fd5b6106ec83610694565b946020939093013593505050565b6000602080838503121561070c578182fd5b823567ffffffffffffffff80821115610723578384fd5b818501915085601f830112610736578384fd5b81358181111561074257fe5b604051601f8201601f191681018501838111828210171561075f57fe5b6040528181528382018501881015610775578586fd5b818585018683013790810190930193909352509392505050565b6000602082840312156107a0578081fd5b5035919050565b6001600160a01b0391909116815260200190565b6020808252825182820181905260009190848201906040850190845b818110156107fc5783516001600160a01b0316835292840192918401916001016107d7565b50909695505050505050565b901515815260200190565b6000602080835283518082850152825b8181101561083f57858101830151858201604001528201610823565b818111156108505783604083870101525b50601f01601f1916929092016040019392505050565b6020808252601190820152701c195c9b5a5cdcda5bdb8819195b9a5959607a1b604082015260600190565b9081526020019056fe60a2a5991d9781a24cd2bcd88acc860a8334ef02efdad1c00fa914e64797926aa26469706673582212208e3a58776bdd01741c430555adc0c7133c08152462e2931e855cbe9baafa38b864736f6c63430007060033a26469706673582212200c9941ac3d37c075b27784c4b0e738c7d760a067322425f4b35d1f7357a8f36e64736f6c63430007060033",
  "immutableReferences": {},
  "source": "pragma solidity ^0.7.0;\npragma experimental ABIEncoderV2;\n// SPDX-License-Identifier: MIT\n\nimport { Oracle } from './oracle.sol';\nimport { UserManager } from './user_manager.sol';\n\n\n// TODO: don't store oracle by ID, instead store it by address (store data such as possibly an id inside oracle contract)\ncontract OracleManager {\n\n    // MAP OF ALL ORACLES, [ORACLE ID => CONTRACT]\n    // TODO: mapping (address => Oracle) public oracles;\n    mapping (string => Oracle) oracles;\n\n    // USER DEVICE COLLECTIONS, [USER ADDRESS => LIST OF ORACLE IDs]\n    mapping (address => string[]) collections;\n\n    // REFERENCES\n    UserManager public user_manager;\n    address public task_manager;\n\n    // INIT STATUS\n    bool public initialized = false;\n\n    // ORACLE ADDED EVENT\n    event added();\n\n    // FETCH ORACLE BY ID\n    function fetch_oracle(string memory id) public view returns(Oracle) {\n        return oracles[id];\n    }\n\n    // FETCH USER COLLECTION\n    function fetch_collection(address user) public view returns(string[] memory) {\n        return collections[user];\n    }\n\n    // CREATE NEW ORACLE\n    function create(string memory id, uint price) public {\n\n        // IF THE CONTRACT HAS BEEN INITIALIZED\n        // IF THE USER IS REGISTERED\n        // IF THE DEVICE DOES NOT EXIST\n        require(initialized, 'contract has not been initialized');\n        require(user_manager.exists(msg.sender), 'you need to be a registered user');\n        require(!exists(id), 'identifier already exists');\n\n        // INSTATIATE & INDEX NEW ORACLE\n        oracles[id] = new Oracle(\n            price,\n            msg.sender,\n            task_manager\n        );\n\n        // PUSH INTO SENDERS COLLECTION\n        collections[msg.sender].push(id);\n\n        // EMIT EVENT\n        emit added();\n    }\n\n    // INITIALIZE THE CONTRACT\n    function init(address _user_manager, address _task_manager) public {\n\n        // IF THE CONTRACT HAS NOT BEEN INITIALIZED BEFORE\n        require(!initialized, 'contract has already been initialized');\n\n        // SET REFERENCES\n        user_manager = UserManager(_user_manager);\n        task_manager = _task_manager;\n\n        // BLOCK RE-INITIALIZATION\n        initialized = true;\n    }\n\n    // CHECK IF ORACLE EXISTS\n    function exists(string memory id) public view returns(bool) {\n        if (address(oracles[id]) != 0x0000000000000000000000000000000000000000) {\n            return true;\n        } else {\n            return false;\n        }\n    }\n}",
  "sourcePath": "/project/contracts/oracle_manager.sol",
  "compiler": {
    "name": "solc",
    "version": "0.7.6+commit.7338295f.Emscripten.clang"
  },
  "schemaVersion": "3.4.3",
  "updatedAt": "2021-11-09T10:21:59.723Z",
  "networkType": "ethereum",
  "devdoc": {
    "kind": "dev",
    "methods": {},
    "version": 1
  },
  "userdoc": {
    "kind": "user",
    "methods": {},
    "version": 1
  }
}