{
  "contractName": "Oracle",
  "abi": [
    {
      "inputs": [
        {
          "internalType": "uint256",
          "name": "_price",
          "type": "uint256"
        },
        {
          "internalType": "address",
          "name": "_owner",
          "type": "address"
        },
        {
          "internalType": "address",
          "name": "_task_manager",
          "type": "address"
        }
      ],
      "stateMutability": "nonpayable",
      "type": "constructor"
    },
    {
      "anonymous": false,
      "inputs": [],
      "name": "middleware",
      "type": "event"
    },
    {
      "anonymous": false,
      "inputs": [],
      "name": "modification",
      "type": "event"
    },
    {
      "inputs": [],
      "name": "active",
      "outputs": [
        {
          "internalType": "bool",
          "name": "",
          "type": "bool"
        }
      ],
      "stateMutability": "view",
      "type": "function"
    },
    {
      "inputs": [
        {
          "internalType": "uint256",
          "name": "",
          "type": "uint256"
        }
      ],
      "name": "backlog",
      "outputs": [
        {
          "internalType": "address",
          "name": "",
          "type": "address"
        }
      ],
      "stateMutability": "view",
      "type": "function"
    },
    {
      "inputs": [],
      "name": "completed",
      "outputs": [
        {
          "internalType": "uint256",
          "name": "",
          "type": "uint256"
        }
      ],
      "stateMutability": "view",
      "type": "function"
    },
    {
      "inputs": [],
      "name": "owner",
      "outputs": [
        {
          "internalType": "address",
          "name": "",
          "type": "address"
        }
      ],
      "stateMutability": "view",
      "type": "function"
    },
    {
      "inputs": [],
      "name": "price",
      "outputs": [
        {
          "internalType": "uint256",
          "name": "",
          "type": "uint256"
        }
      ],
      "stateMutability": "view",
      "type": "function"
    },
    {
      "inputs": [],
      "name": "task_manager",
      "outputs": [
        {
          "internalType": "address",
          "name": "",
          "type": "address"
        }
      ],
      "stateMutability": "view",
      "type": "function"
    },
    {
      "inputs": [],
      "name": "fetch_backlog",
      "outputs": [
        {
          "internalType": "address[]",
          "name": "",
          "type": "address[]"
        }
      ],
      "stateMutability": "view",
      "type": "function"
    },
    {
      "inputs": [],
      "name": "update_middleware",
      "outputs": [],
      "stateMutability": "nonpayable",
      "type": "function"
    },
    {
      "inputs": [],
      "name": "toggle_active",
      "outputs": [],
      "stateMutability": "nonpayable",
      "type": "function"
    },
    {
      "inputs": [
        {
          "internalType": "address",
          "name": "task",
          "type": "address"
        }
      ],
      "name": "assign_task",
      "outputs": [],
      "stateMutability": "nonpayable",
      "type": "function"
    },
    {
      "inputs": [
        {
          "internalType": "address",
          "name": "target",
          "type": "address"
        },
        {
          "internalType": "uint256",
          "name": "reward",
          "type": "uint256"
        }
      ],
      "name": "clear_task",
      "outputs": [],
      "stateMutability": "nonpayable",
      "type": "function"
    }
  ],
  "bytecode": "0x608060405234801561001057600080fd5b5060405161067338038061067383398101604081905261002f91610082565b600292909255600080546001600160a01b039283166001600160a01b031991821617909155600180549290931691161790556100bd565b80516001600160a01b038116811461007d57600080fd5b919050565b600080600060608486031215610096578283fd5b835192506100a660208501610066565b91506100b460408501610066565b90509250925092565b6105a7806100cc6000396000f3fe608060405234801561001057600080fd5b50600436106100a95760003560e01c80638da5cb5b116100715780638da5cb5b146101115780639d9a7fe914610119578063a035b1fe1461012e578063b17f7d3114610136578063d52cf8ba1461013e578063e7869fad14610151576100a9565b806302fb0c5e146100ae578063176e8285146100cc57806331c3a3e0146100e15780633afd1b671461010157806350454d8914610109575b600080fd5b6100b6610166565b6040516100c39190610532565b60405180910390f35b6100df6100da36600461046f565b61016f565b005b6100f46100ef3660046104b9565b610216565b6040516100c391906104d1565b6100df610240565b6100df6102a7565b6100f46102fc565b61012161030b565b6040516100c39190610568565b610121610311565b6100f4610317565b6100df61014c366004610490565b610326565b6101596103f1565b6040516100c391906104e5565b60045460ff1681565b6001546001600160a01b031633146101a25760405162461bcd60e51b81526004016101999061053d565b60405180910390fd5b6003805460018101825560009182527fc2575a0e9e593c00f959f8c92f12db2869c3395a3b0502d05e2516446f71f85b0180546001600160a01b0319166001600160a01b0384161790556040517f60a2a5991d9781a24cd2bcd88acc860a8334ef02efdad1c00fa914e64797926a9190a150565b6003818154811061022657600080fd5b6000918252602090912001546001600160a01b0316905081565b6000546001600160a01b0316331461026a5760405162461bcd60e51b81526004016101999061053d565b6004805460ff19811660ff909116151790556040517f60a2a5991d9781a24cd2bcd88acc860a8334ef02efdad1c00fa914e64797926a90600090a1565b6000546001600160a01b031633146102d15760405162461bcd60e51b81526004016101999061053d565b6040517ff4f20ac0c2476401ad86d69786801023c519552a2881ba07b43fd752fafd58ec90600090a1565b6000546001600160a01b031681565b60055481565b60025481565b6001546001600160a01b031681565b6001546001600160a01b031633146103505760405162461bcd60e51b81526004016101999061053d565b60005b6003548110156103ec57826001600160a01b03166003828154811061037457fe5b6000918252602090912001546001600160a01b031614156103e4576003818154811061039c57fe5b6000918252602082200180546001600160a01b031916905560058054840190556040517f60a2a5991d9781a24cd2bcd88acc860a8334ef02efdad1c00fa914e64797926a9190a15b600101610353565b505050565b6060600380548060200260200160405190810160405280929190818152602001828054801561044957602002820191906000526020600020905b81546001600160a01b0316815260019091019060200180831161042b575b5050505050905090565b80356001600160a01b038116811461046a57600080fd5b919050565b600060208284031215610480578081fd5b61048982610453565b9392505050565b600080604083850312156104a2578081fd5b6104ab83610453565b946020939093013593505050565b6000602082840312156104ca578081fd5b5035919050565b6001600160a01b0391909116815260200190565b6020808252825182820181905260009190848201906040850190845b818110156105265783516001600160a01b031683529284019291840191600101610501565b50909695505050505050565b901515815260200190565b6020808252601190820152701c195c9b5a5cdcda5bdb8819195b9a5959607a1b604082015260600190565b9081526020019056fea26469706673582212209ba8155e38274726888952eccac5d7ca8fc76f7b33ee88c602c1871a7d7140dd64736f6c63430007060033",
  "immutableReferences": {},
  "source": "pragma solidity ^0.7.0;\npragma experimental ABIEncoderV2;\n// SPDX-License-Identifier: MIT\n\ncontract Oracle {\n\n    // ADDRESS REFERENCES\n    address public owner;\n    address public task_manager;\n\n    // SERVICE TOKEN PRICE\n    uint public price;\n\n    // ITERABLE ASSIGNMENT BACKLOG\n    address[] public backlog;\n\n    // DEVICE STATUS\n    bool public active;\n\n    // NUMBER OF COMPLETED ASSIGNMENTS\n    uint public completed;\n\n    // EVENTS\n    event middleware();\n    // TODO: break up into more events, or include details about what actually happened\n    event modification();\n\n    // SET ADDRESS REFERENCES\n    constructor(uint _price, address _owner, address _task_manager) {\n        price = _price;\n        owner = _owner;\n        task_manager = _task_manager;\n    }\n\n    // FETCH TASK BACKLOG\n    function fetch_backlog() public view returns(address[] memory) {\n        return backlog;\n    }\n\n    // UPDATE DEVICE MIDDLEWARE\n    function update_middleware() public {\n\n        // IF THE SENDER IS THE DEVICE ORACLES OWNER\n        require(msg.sender == owner, 'permission denied');\n\n        // EMIT EVENT TO DEVICE\n        emit middleware();\n    }\n\n    // TOGGLE ACTIVE STATUS\n    function toggle_active() public {\n\n        // IF THE SENDER IS THE ORACLES OWNER\n        require(msg.sender == owner, 'permission denied');\n\n        // TOGGLE STATUS\n        active = !active;\n\n        // EMIT CONTRACT MODIFIED EVENT\n        emit modification();\n    }\n\n    // ASSIGN TASK TO DEVICE\n    function assign_task(address task) public {\n\n        // IF THE SENDER IS THE TASK MANAGER\n        require(msg.sender == task_manager, 'permission denied');\n\n        // ADD TASK TO BACKLOG\n        backlog.push(task);\n\n        // EMIT CONTRACT MODIFIED EVENT\n        emit modification();\n    }\n\n    // CLEAR FINISHED TASK FROM BACKLOG\n    function clear_task(address target, uint reward) public {\n\n        // IF THE SENDER IS THE TASK MANAGER\n        require(msg.sender == task_manager, 'permission denied');\n\n        // LOOP & FIND\n        for(uint index = 0; index < backlog.length; index++) {\n            if (address(backlog[index]) == target) {\n\n                // DELETE THE ASSIGNMENT & INCREMENT COMPLETED\n                delete backlog[index];\n                completed += reward;\n\n                // EMIT CONTRACT MODIFIED EVENT\n                emit modification();\n            }\n        }\n    }\n}",
  "sourcePath": "/project/contracts/oracle.sol",
  "compiler": {
    "name": "solc",
    "version": "0.7.6+commit.7338295f.Emscripten.clang"
  },
  "schemaVersion": "3.4.3",
  "updatedAt": "2021-11-25T15:09:36.594Z",
  "devdoc": {
    "kind": "dev",
    "methods": {},
    "version": 1
  },
  "userdoc": {
    "kind": "user",
    "methods": {},
    "version": 1
  }
}