{
  "contractName": "OracleManager",
  "abi": [
    {
      "anonymous": false,
      "inputs": [],
      "name": "added",
      "type": "event"
    },
    {
      "inputs": [],
      "name": "initialized",
      "outputs": [
        {
          "internalType": "bool",
          "name": "",
          "type": "bool"
        }
      ],
      "stateMutability": "view",
      "type": "function",
      "constant": true
    },
    {
      "inputs": [],
      "name": "task_manager",
      "outputs": [
        {
          "internalType": "address",
          "name": "",
          "type": "address"
        }
      ],
      "stateMutability": "view",
      "type": "function",
      "constant": true
    },
    {
      "inputs": [],
      "name": "user_manager",
      "outputs": [
        {
          "internalType": "contract UserManager",
          "name": "",
          "type": "address"
        }
      ],
      "stateMutability": "view",
      "type": "function",
      "constant": true
    },
    {
      "inputs": [
        {
          "internalType": "string",
          "name": "id",
          "type": "string"
        }
      ],
      "name": "fetch_oracle",
      "outputs": [
        {
          "internalType": "contract Oracle",
          "name": "",
          "type": "address"
        }
      ],
      "stateMutability": "view",
      "type": "function",
      "constant": true
    },
    {
      "inputs": [
        {
          "internalType": "address",
          "name": "user",
          "type": "address"
        }
      ],
      "name": "fetch_collection",
      "outputs": [
        {
          "internalType": "string[]",
          "name": "",
          "type": "string[]"
        }
      ],
      "stateMutability": "view",
      "type": "function",
      "constant": true
    },
    {
      "inputs": [
        {
          "internalType": "string",
          "name": "id",
          "type": "string"
        },
        {
          "internalType": "uint256",
          "name": "price",
          "type": "uint256"
        }
      ],
      "name": "create",
      "outputs": [],
      "stateMutability": "nonpayable",
      "type": "function"
    },
    {
      "inputs": [
        {
          "internalType": "address",
          "name": "_user_manager",
          "type": "address"
        },
        {
          "internalType": "address",
          "name": "_task_manager",
          "type": "address"
        }
      ],
      "name": "init",
      "outputs": [],
      "stateMutability": "nonpayable",
      "type": "function"
    },
    {
      "inputs": [
        {
          "internalType": "string",
          "name": "id",
          "type": "string"
        }
      ],
      "name": "exists",
      "outputs": [
        {
          "internalType": "bool",
          "name": "",
          "type": "bool"
        }
      ],
      "stateMutability": "view",
      "type": "function",
      "constant": true
    }
  ],
  "bytecode": "0x60806040526003805460ff60a01b1916905534801561001d57600080fd5b50610fca8061002d6000396000f3fe608060405234801561001057600080fd5b50600436106100885760003560e01c806346f81a871161005b57806346f81a87146100fe5780639eeb67c414610113578063b17f7d311461011b578063f09a40161461012357610088565b8063158ef93e1461008d5780631aef016b146100ab5780631f3b23ce146100cb578063261a323e146100eb575b600080fd5b610095610136565b6040516100a291906107d5565b60405180910390f35b6100be6100b93660046106af565b610146565b6040516100a29190610749565b6100de6100d936600461063c565b610178565b6040516100a2919061075d565b6100956100f93660046106af565b610266565b61011161010c3660046106ea565b6102a5565b005b6100be61047c565b6100be61048b565b61011161013136600461065d565b61049a565b600354600160a01b900460ff1681565b60008082604051610157919061072d565b908152604051908190036020019020546001600160a01b031690505b919050565b6001600160a01b0381166000908152600160209081526040808320805482518185028101850190935280835260609492939192909184015b8282101561025b5760008481526020908190208301805460408051601f60026000196101006001871615020190941693909304928301859004850281018501909152818152928301828280156102475780601f1061021c57610100808354040283529160200191610247565b820191906000526020600020905b81548152906001019060200180831161022a57829003601f168201915b5050505050815260200190600101906101b0565b505050509050919050565b60008082604051610277919061072d565b908152604051908190036020019020546001600160a01b03161561029d57506001610173565b506000610173565b600354600160a01b900460ff166102d75760405162461bcd60e51b81526004016102ce90610891565b60405180910390fd5b600254604051637b51e92760e11b81526001600160a01b039091169063f6a3d24e90610307903390600401610749565b60206040518083038186803b15801561031f57600080fd5b505afa158015610333573d6000803e3d6000fd5b505050506040513d601f19601f82011682018060405250810190610357919061068f565b6103735760405162461bcd60e51b81526004016102ce90610825565b61037c82610266565b156103995760405162461bcd60e51b81526004016102ce9061085a565b600354604051829133916001600160a01b03909116906103b890610502565b6103c4939291906108d2565b604051809103906000f0801580156103e0573d6000803e3d6000fd5b506000836040516103f1919061072d565b908152604080516020928190038301902080546001600160a01b0319166001600160a01b0394909416939093179092553360009081526001808352928120805493840181558152819020845161044e93919091019185019061050f565b506040517fc87542064bc1930c362cb7f85a979ab1051627291e7db73dfda0f48bca40548190600090a15050565b6002546001600160a01b031681565b6003546001600160a01b031681565b600354600160a01b900460ff16156104c45760405162461bcd60e51b81526004016102ce906107e0565b600280546001600160a01b03199081166001600160a01b039485161790915560038054600160a01b9216929093169190911760ff60a01b1916179055565b6106738061092283390190565b828054600181600116156101000203166002900490600052602060002090601f016020900481019282610545576000855561058b565b82601f1061055e57805160ff191683800117855561058b565b8280016001018555821561058b579182015b8281111561058b578251825591602001919060010190610570565b5061059792915061059b565b5090565b5b80821115610597576000815560010161059c565b80356001600160a01b038116811461017357600080fd5b600082601f8301126105d7578081fd5b813567ffffffffffffffff808211156105ec57fe5b604051601f8301601f19168101602001828111828210171561060a57fe5b604052828152848301602001861015610621578384fd5b82602086016020830137918201602001929092529392505050565b60006020828403121561064d578081fd5b610656826105b0565b9392505050565b6000806040838503121561066f578081fd5b610678836105b0565b9150610686602084016105b0565b90509250929050565b6000602082840312156106a0578081fd5b81518015158114610656578182fd5b6000602082840312156106c0578081fd5b813567ffffffffffffffff8111156106d6578182fd5b6106e2848285016105c7565b949350505050565b600080604083850312156106fc578182fd5b823567ffffffffffffffff811115610712578283fd5b61071e858286016105c7565b95602094909401359450505050565b6000825161073f8184602087016108f1565b9190910192915050565b6001600160a01b0391909116815260200190565b6000602080830181845280855180835260408601915060408482028701019250838701855b828110156107c857878503603f19018452815180518087526107a9818989018a85016108f1565b601f01601f191695909501860194509285019290850190600101610782565b5092979650505050505050565b901515815260200190565b60208082526025908201527f636f6e74726163742068617320616c7265616479206265656e20696e697469616040820152641b1a5e995960da1b606082015260800190565b6020808252818101527f796f75206e65656420746f206265206120726567697374657265642075736572604082015260600190565b60208082526019908201527f6964656e74696669657220616c72656164792065786973747300000000000000604082015260600190565b60208082526021908201527f636f6e747261637420686173206e6f74206265656e20696e697469616c697a656040820152601960fa1b606082015260800190565b9283526001600160a01b03918216602084015216604082015260600190565b60005b8381101561090c5781810151838201526020016108f4565b8381111561091b576000848401525b5050505056fe608060405234801561001057600080fd5b5060405161067338038061067383398101604081905261002f91610082565b600292909255600080546001600160a01b039283166001600160a01b031991821617909155600180549290931691161790556100bd565b80516001600160a01b038116811461007d57600080fd5b919050565b600080600060608486031215610096578283fd5b835192506100a660208501610066565b91506100b460408501610066565b90509250925092565b6105a7806100cc6000396000f3fe608060405234801561001057600080fd5b50600436106100a95760003560e01c80638da5cb5b116100715780638da5cb5b146101115780639d9a7fe914610119578063a035b1fe1461012e578063b17f7d3114610136578063d52cf8ba1461013e578063e7869fad14610151576100a9565b806302fb0c5e146100ae578063176e8285146100cc57806331c3a3e0146100e15780633afd1b671461010157806350454d8914610109575b600080fd5b6100b6610166565b6040516100c39190610532565b60405180910390f35b6100df6100da36600461046f565b61016f565b005b6100f46100ef3660046104b9565b610216565b6040516100c391906104d1565b6100df610240565b6100df6102a7565b6100f46102fc565b61012161030b565b6040516100c39190610568565b610121610311565b6100f4610317565b6100df61014c366004610490565b610326565b6101596103f1565b6040516100c391906104e5565b60045460ff1681565b6001546001600160a01b031633146101a25760405162461bcd60e51b81526004016101999061053d565b60405180910390fd5b6003805460018101825560009182527fc2575a0e9e593c00f959f8c92f12db2869c3395a3b0502d05e2516446f71f85b0180546001600160a01b0319166001600160a01b0384161790556040517f60a2a5991d9781a24cd2bcd88acc860a8334ef02efdad1c00fa914e64797926a9190a150565b6003818154811061022657600080fd5b6000918252602090912001546001600160a01b0316905081565b6000546001600160a01b0316331461026a5760405162461bcd60e51b81526004016101999061053d565b6004805460ff19811660ff909116151790556040517f60a2a5991d9781a24cd2bcd88acc860a8334ef02efdad1c00fa914e64797926a90600090a1565b6000546001600160a01b031633146102d15760405162461bcd60e51b81526004016101999061053d565b6040517ff4f20ac0c2476401ad86d69786801023c519552a2881ba07b43fd752fafd58ec90600090a1565b6000546001600160a01b031681565b60055481565b60025481565b6001546001600160a01b031681565b6001546001600160a01b031633146103505760405162461bcd60e51b81526004016101999061053d565b60005b6003548110156103ec57826001600160a01b03166003828154811061037457fe5b6000918252602090912001546001600160a01b031614156103e4576003818154811061039c57fe5b6000918252602082200180546001600160a01b031916905560058054840190556040517f60a2a5991d9781a24cd2bcd88acc860a8334ef02efdad1c00fa914e64797926a9190a15b600101610353565b505050565b6060600380548060200260200160405190810160405280929190818152602001828054801561044957602002820191906000526020600020905b81546001600160a01b0316815260019091019060200180831161042b575b5050505050905090565b80356001600160a01b038116811461046a57600080fd5b919050565b600060208284031215610480578081fd5b61048982610453565b9392505050565b600080604083850312156104a2578081fd5b6104ab83610453565b946020939093013593505050565b6000602082840312156104ca578081fd5b5035919050565b6001600160a01b0391909116815260200190565b6020808252825182820181905260009190848201906040850190845b818110156105265783516001600160a01b031683529284019291840191600101610501565b50909695505050505050565b901515815260200190565b6020808252601190820152701c195c9b5a5cdcda5bdb8819195b9a5959607a1b604082015260600190565b9081526020019056fea26469706673582212209ba8155e38274726888952eccac5d7ca8fc76f7b33ee88c602c1871a7d7140dd64736f6c63430007060033a26469706673582212204097e7385a486d6ad5fae4d8ce6d70cdcb3ca20768ffd9cc24bde2613e1024d764736f6c63430007060033",
  "immutableReferences": {},
  "source": "pragma solidity ^0.7.0;\npragma experimental ABIEncoderV2;\n// SPDX-License-Identifier: MIT\n\nimport { Oracle } from './oracle.sol';\nimport { UserManager } from './user_manager.sol';\n\ncontract OracleManager {\n\n    // MAP OF ALL ORACLES, [ORACLE ID => CONTRACT]\n    mapping (string => Oracle) oracles;\n\n    // USER DEVICE COLLECTIONS, [USER ADDRESS => LIST OF ORACLE IDs]\n    mapping (address => string[]) collections;\n\n    // REFERENCES\n    UserManager public user_manager;\n    address public task_manager;\n\n    // INIT STATUS\n    bool public initialized = false;\n\n    // ORACLE ADDED EVENT\n    event added();\n\n    // FETCH ORACLE BY ID\n    function fetch_oracle(string memory id) public view returns(Oracle) {\n        return oracles[id];\n    }\n\n    // FETCH USER COLLECTION\n    function fetch_collection(address user) public view returns(string[] memory) {\n        return collections[user];\n    }\n\n    // CREATE NEW ORACLE\n    function create(string memory id, uint price) public {\n\n        // IF THE CONTRACT HAS BEEN INITIALIZED\n        // IF THE USER IS REGISTERED\n        // IF THE DEVICE DOES NOT EXIST\n        require(initialized, 'contract has not been initialized');\n        require(user_manager.exists(msg.sender), 'you need to be a registered user');\n        require(!exists(id), 'identifier already exists');\n\n        // INSTATIATE & INDEX NEW ORACLE\n        oracles[id] = new Oracle(\n            price,\n            msg.sender,\n            task_manager\n        );\n\n        // PUSH INTO SENDERS COLLECTION\n        collections[msg.sender].push(id);\n\n        // EMIT EVENT\n        emit added();\n    }\n\n    // INITIALIZE THE CONTRACT\n    function init(address _user_manager, address _task_manager) public {\n\n        // IF THE CONTRACT HAS NOT BEEN INITIALIZED BEFORE\n        require(!initialized, 'contract has already been initialized');\n\n        // SET REFERENCES\n        user_manager = UserManager(_user_manager);\n        task_manager = _task_manager;\n\n        // BLOCK RE-INITIALIZATION\n        initialized = true;\n    }\n\n    // CHECK IF ORACLE EXISTS\n    function exists(string memory id) public view returns(bool) {\n        if (address(oracles[id]) != 0x0000000000000000000000000000000000000000) {\n            return true;\n        } else {\n            return false;\n        }\n    }\n}",
  "sourcePath": "/project/contracts/oracle_manager.sol",
  "compiler": {
    "name": "solc",
    "version": "0.7.6+commit.7338295f.Emscripten.clang"
  },
  "schemaVersion": "3.4.3",
  "updatedAt": "2021-11-25T15:09:43.833Z",
  "networkType": "ethereum",
  "devdoc": {
    "kind": "dev",
    "methods": {},
    "version": 1
  },
  "userdoc": {
    "kind": "user",
    "methods": {},
    "version": 1
  }
}