{
  "contractName": "Oracle",
  "abi": [
    {
      "inputs": [
        {
          "internalType": "uint256",
          "name": "_price",
          "type": "uint256"
        },
        {
          "internalType": "address",
          "name": "_owner",
          "type": "address"
        },
        {
          "internalType": "address",
          "name": "_task_manager",
          "type": "address"
        }
      ],
      "stateMutability": "nonpayable",
      "type": "constructor"
    },
    {
      "anonymous": false,
      "inputs": [],
      "name": "middleware",
      "type": "event"
    },
    {
      "anonymous": false,
      "inputs": [],
      "name": "modification",
      "type": "event"
    },
    {
      "inputs": [],
      "name": "active",
      "outputs": [
        {
          "internalType": "bool",
          "name": "",
          "type": "bool"
        }
      ],
      "stateMutability": "view",
      "type": "function"
    },
    {
      "inputs": [
        {
          "internalType": "uint256",
          "name": "",
          "type": "uint256"
        }
      ],
      "name": "backlog",
      "outputs": [
        {
          "internalType": "address",
          "name": "",
          "type": "address"
        }
      ],
      "stateMutability": "view",
      "type": "function"
    },
    {
      "inputs": [],
      "name": "completed",
      "outputs": [
        {
          "internalType": "uint256",
          "name": "",
          "type": "uint256"
        }
      ],
      "stateMutability": "view",
      "type": "function"
    },
    {
      "inputs": [],
      "name": "config",
      "outputs": [
        {
          "internalType": "string",
          "name": "",
          "type": "string"
        }
      ],
      "stateMutability": "view",
      "type": "function"
    },
    {
      "inputs": [],
      "name": "discoverable",
      "outputs": [
        {
          "internalType": "bool",
          "name": "",
          "type": "bool"
        }
      ],
      "stateMutability": "view",
      "type": "function"
    },
    {
      "inputs": [],
      "name": "owner",
      "outputs": [
        {
          "internalType": "address",
          "name": "",
          "type": "address"
        }
      ],
      "stateMutability": "view",
      "type": "function"
    },
    {
      "inputs": [],
      "name": "price",
      "outputs": [
        {
          "internalType": "uint256",
          "name": "",
          "type": "uint256"
        }
      ],
      "stateMutability": "view",
      "type": "function"
    },
    {
      "inputs": [],
      "name": "task_manager",
      "outputs": [
        {
          "internalType": "address",
          "name": "",
          "type": "address"
        }
      ],
      "stateMutability": "view",
      "type": "function"
    },
    {
      "inputs": [],
      "name": "fetch_backlog",
      "outputs": [
        {
          "internalType": "address[]",
          "name": "",
          "type": "address[]"
        }
      ],
      "stateMutability": "view",
      "type": "function"
    },
    {
      "inputs": [],
      "name": "update_middleware",
      "outputs": [],
      "stateMutability": "nonpayable",
      "type": "function"
    },
    {
      "inputs": [
        {
          "internalType": "string",
          "name": "data",
          "type": "string"
        }
      ],
      "name": "update_config",
      "outputs": [],
      "stateMutability": "nonpayable",
      "type": "function"
    },
    {
      "inputs": [],
      "name": "toggle_active",
      "outputs": [],
      "stateMutability": "nonpayable",
      "type": "function"
    },
    {
      "inputs": [],
      "name": "toggle_discoverable",
      "outputs": [],
      "stateMutability": "nonpayable",
      "type": "function"
    },
    {
      "inputs": [
        {
          "internalType": "address",
          "name": "task",
          "type": "address"
        }
      ],
      "name": "assign_task",
      "outputs": [],
      "stateMutability": "nonpayable",
      "type": "function"
    },
    {
      "inputs": [
        {
          "internalType": "address",
          "name": "target",
          "type": "address"
        },
        {
          "internalType": "uint256",
          "name": "reward",
          "type": "uint256"
        }
      ],
      "name": "clear_task",
      "outputs": [],
      "stateMutability": "nonpayable",
      "type": "function"
    }
  ],
  "bytecode": "0x608060405234801561001057600080fd5b506040516109bc3803806109bc83398101604081905261002f91610082565b600292909255600080546001600160a01b039283166001600160a01b031991821617909155600180549290931691161790556100bd565b80516001600160a01b038116811461007d57600080fd5b919050565b600080600060608486031215610096578283fd5b835192506100a660208501610066565b91506100b460408501610066565b90509250925092565b6108f0806100cc6000396000f3fe608060405234801561001057600080fd5b50600436106100f55760003560e01c80638da5cb5b11610097578063b17f7d3111610066578063b17f7d31146101a7578063d52cf8ba146101af578063e639e4a6146101c2578063e7869fad146101d5576100f5565b80638da5cb5b1461017a5780639d9a7fe9146101825780639f2c52df14610197578063a035b1fe1461019f576100f5565b80633afd1b67116100d35780633afd1b671461014d57806350454d89146101555780637882ece11461015d57806379502c5514610165576100f5565b806302fb0c5e146100fa578063176e82851461011857806331c3a3e01461012d575b600080fd5b6101026101ea565b60405161010f9190610808565b60405180910390f35b61012b6101263660046106b0565b6101f3565b005b61014061013b36600461078f565b610288565b60405161010f91906107a7565b61012b6102b2565b61012b610307565b61010261035c565b61016d61036a565b60405161010f9190610813565b6101406103f8565b61018a610407565b60405161010f9190610891565b61012b61040d565b61018a61046b565b610140610471565b61012b6101bd3660046106d1565b610480565b61012b6101d03660046106fa565b610539565b6101dd610591565b60405161010f91906107bb565b60045460ff1681565b6001546001600160a01b031633146102265760405162461bcd60e51b815260040161021d90610866565b60405180910390fd5b6003805460018101825560009182527fc2575a0e9e593c00f959f8c92f12db2869c3395a3b0502d05e2516446f71f85b0180546001600160a01b0319166001600160a01b03841617905560405160008051602061089b8339815191529190a150565b6003818154811061029857600080fd5b6000918252602090912001546001600160a01b0316905081565b6000546001600160a01b031633146102dc5760405162461bcd60e51b815260040161021d90610866565b6004805460ff19811660ff9091161517905560405160008051602061089b83398151915290600090a1565b6000546001600160a01b031633146103315760405162461bcd60e51b815260040161021d90610866565b6040517ff4f20ac0c2476401ad86d69786801023c519552a2881ba07b43fd752fafd58ec90600090a1565b600454610100900460ff1681565b6005805460408051602060026001851615610100026000190190941693909304601f810184900484028201840190925281815292918301828280156103f05780601f106103c5576101008083540402835291602001916103f0565b820191906000526020600020905b8154815290600101906020018083116103d357829003601f168201915b505050505081565b6000546001600160a01b031681565b60065481565b6000546001600160a01b031633146104375760405162461bcd60e51b815260040161021d90610866565b6004805461ff001981166101009182900460ff161590910217905560405160008051602061089b83398151915290600090a1565b60025481565b6001546001600160a01b031681565b6001546001600160a01b031633146104aa5760405162461bcd60e51b815260040161021d90610866565b60005b60035481101561053457826001600160a01b0316600382815481106104ce57fe5b6000918252602090912001546001600160a01b0316141561052c57600381815481106104f657fe5b6000918252602082200180546001600160a01b0319169055600680548401905560405160008051602061089b8339815191529190a15b6001016104ad565b505050565b6000546001600160a01b031633146105635760405162461bcd60e51b815260040161021d90610866565b80516105769060059060208401906105f3565b5060405160008051602061089b83398151915290600090a150565b606060038054806020026020016040519081016040528092919081815260200182805480156105e957602002820191906000526020600020905b81546001600160a01b031681526001909101906020018083116105cb575b5050505050905090565b828054600181600116156101000203166002900490600052602060002090601f016020900481019282610629576000855561066f565b82601f1061064257805160ff191683800117855561066f565b8280016001018555821561066f579182015b8281111561066f578251825591602001919060010190610654565b5061067b92915061067f565b5090565b5b8082111561067b5760008155600101610680565b80356001600160a01b03811681146106ab57600080fd5b919050565b6000602082840312156106c1578081fd5b6106ca82610694565b9392505050565b600080604083850312156106e3578081fd5b6106ec83610694565b946020939093013593505050565b6000602080838503121561070c578182fd5b823567ffffffffffffffff80821115610723578384fd5b818501915085601f830112610736578384fd5b81358181111561074257fe5b604051601f8201601f191681018501838111828210171561075f57fe5b6040528181528382018501881015610775578586fd5b818585018683013790810190930193909352509392505050565b6000602082840312156107a0578081fd5b5035919050565b6001600160a01b0391909116815260200190565b6020808252825182820181905260009190848201906040850190845b818110156107fc5783516001600160a01b0316835292840192918401916001016107d7565b50909695505050505050565b901515815260200190565b6000602080835283518082850152825b8181101561083f57858101830151858201604001528201610823565b818111156108505783604083870101525b50601f01601f1916929092016040019392505050565b6020808252601190820152701c195c9b5a5cdcda5bdb8819195b9a5959607a1b604082015260600190565b9081526020019056fe60a2a5991d9781a24cd2bcd88acc860a8334ef02efdad1c00fa914e64797926aa26469706673582212208e3a58776bdd01741c430555adc0c7133c08152462e2931e855cbe9baafa38b864736f6c63430007060033",
  "immutableReferences": {},
  "source": "pragma solidity ^0.7.0;\npragma experimental ABIEncoderV2;\n// SPDX-License-Identifier: MIT\n\ncontract Oracle {\n\n    //TODO: store ID here\n\n    // ADDRESS REFERENCES\n    address public owner;\n    address public task_manager;\n\n    // SERVICE TOKEN PRICE\n    uint public price;\n\n    // ITERABLE ASSIGNMENT BACKLOG\n    address[] public backlog;\n\n    // DEVICE STATUS\n    bool public active;\n    bool public discoverable;\n\n    // DISCOVERY CONFIGURATION\n    string public config;\n\n    // NUMBER OF COMPLETED ASSIGNMENTS\n    uint public completed;\n\n    // EVENTS\n    event middleware();\n    // TODO: break up into more events, or include details about what actually happened\n    event modification();\n\n    // SET ADDRESS REFERENCES\n    constructor(uint _price, address _owner, address _task_manager) {\n        price = _price;\n        owner = _owner;\n        task_manager = _task_manager;\n    }\n\n    // FETCH TASK BACKLOG\n    function fetch_backlog() public view returns(address[] memory) {\n        return backlog;\n    }\n\n    // UPDATE DEVICE MIDDLEWARE\n    function update_middleware() public {\n\n        // IF THE SENDER IS THE DEVICE ORACLES OWNER\n        require(msg.sender == owner, 'permission denied');\n\n        // EMIT EVENT TO DEVICE\n        emit middleware();\n    }\n\n    // UPDATE DEVICE DISCOVERY CONFIG\n    function update_config(string memory data) public {\n\n        // IF THE SENDER IS THE DEVICE ORACLES OWNER\n        require(msg.sender == owner, 'permission denied');\n\n        // SAVE THE NEW CONFIG IN THE CONTRACT\n        config = data;\n\n        // EMIT CONTRACT MODIFIED EVENT\n        emit modification();\n    }\n\n    // TOGGLE ACTIVE STATUS\n    function toggle_active() public {\n\n        // IF THE SENDER IS THE ORACLES OWNER\n        require(msg.sender == owner, 'permission denied');\n\n        // TOGGLE STATUS\n        active = !active;\n\n        // EMIT CONTRACT MODIFIED EVENT\n        emit modification();\n    }\n\n    // TOGGLE DISCOVERABLE STATUS\n    function toggle_discoverable() public {\n\n        // IF THE SENDER IS THE ORACLES OWNER\n        require(msg.sender == owner, 'permission denied');\n\n        // TOGGLE STATUS\n        discoverable = !discoverable;\n\n        // EMIT CONTRACT MODIFIED EVENT\n        emit modification();\n    }\n\n    // ASSIGN TASK TO DEVICE\n    function assign_task(address task) public {\n\n        // IF THE SENDER IS THE TASK MANAGER\n        require(msg.sender == task_manager, 'permission denied');\n\n        // ADD TASK TO BACKLOG\n        backlog.push(task);\n\n        // EMIT CONTRACT MODIFIED EVENT\n        emit modification();\n    }\n\n    // CLEAR FINISHED TASK FROM BACKLOG\n    function clear_task(address target, uint reward) public {\n\n        // IF THE SENDER IS THE TASK MANAGER\n        require(msg.sender == task_manager, 'permission denied');\n\n        // LOOP & FIND\n        for(uint index = 0; index < backlog.length; index++) {\n            if (address(backlog[index]) == target) {\n\n                // DELETE THE ASSIGNMENT & INCREMENT COMPLETED\n                delete backlog[index];\n                completed += reward;\n\n                // EMIT CONTRACT MODIFIED EVENT\n                emit modification();\n            }\n        }\n    }\n}",
  "sourcePath": "/project/contracts/oracle.sol",
  "compiler": {
    "name": "solc",
    "version": "0.7.6+commit.7338295f.Emscripten.clang"
  },
  "schemaVersion": "3.4.3",
  "updatedAt": "2021-11-09T10:21:53.401Z",
  "devdoc": {
    "kind": "dev",
    "methods": {},
    "version": 1
  },
  "userdoc": {
    "kind": "user",
    "methods": {},
    "version": 1
  }
}