{
  "contractName": "Task",
  "abi": [
    {
      "inputs": [
        {
          "internalType": "address",
          "name": "_creator",
          "type": "address"
        },
        {
          "internalType": "string",
          "name": "_oracle",
          "type": "string"
        },
        {
          "internalType": "uint256",
          "name": "_timelimit",
          "type": "uint256"
        },
        {
          "internalType": "uint256",
          "name": "_reward",
          "type": "uint256"
        },
        {
          "internalType": "string",
          "name": "_params",
          "type": "string"
        }
      ],
      "stateMutability": "nonpayable",
      "type": "constructor"
    },
    {
      "anonymous": false,
      "inputs": [],
      "name": "destroyed",
      "type": "event"
    },
    {
      "inputs": [],
      "name": "creator",
      "outputs": [
        {
          "internalType": "address",
          "name": "",
          "type": "address"
        }
      ],
      "stateMutability": "view",
      "type": "function"
    },
    {
      "inputs": [],
      "name": "expires",
      "outputs": [
        {
          "internalType": "uint256",
          "name": "",
          "type": "uint256"
        }
      ],
      "stateMutability": "view",
      "type": "function"
    },
    {
      "inputs": [],
      "name": "oracle",
      "outputs": [
        {
          "internalType": "string",
          "name": "",
          "type": "string"
        }
      ],
      "stateMutability": "view",
      "type": "function"
    },
    {
      "inputs": [],
      "name": "params",
      "outputs": [
        {
          "internalType": "string",
          "name": "",
          "type": "string"
        }
      ],
      "stateMutability": "view",
      "type": "function"
    },
    {
      "inputs": [],
      "name": "reward",
      "outputs": [
        {
          "internalType": "uint256",
          "name": "",
          "type": "uint256"
        }
      ],
      "stateMutability": "view",
      "type": "function"
    },
    {
      "inputs": [],
      "name": "task_manager",
      "outputs": [
        {
          "internalType": "address",
          "name": "",
          "type": "address"
        }
      ],
      "stateMutability": "view",
      "type": "function"
    },
    {
      "inputs": [],
      "name": "destroy",
      "outputs": [],
      "stateMutability": "nonpayable",
      "type": "function"
    }
  ],
  "bytecode": "0x608060405234801561001057600080fd5b506040516105de3803806105de833981810160405260a081101561003357600080fd5b81516020830180516040519294929383019291908464010000000082111561005a57600080fd5b90830190602082018581111561006f57600080fd5b825164010000000081118282018810171561008957600080fd5b82525081516020918201929091019080838360005b838110156100b657818101518382015260200161009e565b50505050905090810190601f1680156100e35780820380516001836020036101000a031916815260200191505b5060408181526020830151908301516060909301805191959394929392918464010000000082111561011457600080fd5b90830190602082018581111561012957600080fd5b825164010000000081118282018810171561014357600080fd5b82525081516020918201929091019080838360005b83811015610170578181015183820152602001610158565b50505050905090810190601f16801561019d5780820380516001836020036101000a031916815260200191505b506040525050600080546001600160a01b0388166001600160a01b03199182161790915560018054909116331790555083516101e090600290602087019061020a565b50438301600355600482905580516101ff90600590602084019061020a565b5050505050506102ab565b828054600181600116156101000203166002900490600052602060002090601f0160209004810192826102405760008555610286565b82601f1061025957805160ff1916838001178555610286565b82800160010185558215610286579182015b8281111561028657825182559160200191906001019061026b565b50610292929150610296565b5090565b5b808211156102925760008155600101610297565b610324806102ba6000396000f3fe608060405234801561001057600080fd5b506004361061007d5760003560e01c806383197ef01161005b57806383197ef01461013d578063b17f7d3114610147578063b1cb0db31461014f578063cff0ab96146101575761007d565b806302d05d3f14610082578063228cb733146100a65780637dc0d1d0146100c0575b600080fd5b61008a61015f565b604080516001600160a01b039092168252519081900360200190f35b6100ae61016e565b60408051918252519081900360200190f35b6100c8610174565b6040805160208082528351818301528351919283929083019185019080838360005b838110156101025781810151838201526020016100ea565b50505050905090810190601f16801561012f5780820380516001836020036101000a031916815260200191505b509250505060405180910390f35b6101456101ff565b005b61008a61027e565b6100ae61028d565b6100c8610293565b6000546001600160a01b031681565b60045481565b6002805460408051602060018416156101000260001901909316849004601f810184900484028201840190925281815292918301828280156101f75780601f106101cc576101008083540402835291602001916101f7565b820191906000526020600020905b8154815290600101906020018083116101da57829003601f168201915b505050505081565b6001546001600160a01b03163314610252576040805162461bcd60e51b81526020600482015260116024820152701c195c9b5a5cdcda5bdb8819195b9a5959607a1b604482015290519081900360640190fd5b6040517f359cbbc9c3ef6ec29426251cbe0ff5aeae59b931acf6735d3987b6b54dc2cae690600090a130ff5b6001546001600160a01b031681565b60035481565b6005805460408051602060026001851615610100026000190190941693909304601f810184900484028201840190925281815292918301828280156101f75780601f106101cc576101008083540402835291602001916101f756fea26469706673582212206c0bf9d95972d1428aabc58c4e91dd43f453526a1f177c448b23fd36e4fd250f64736f6c63430007060033",
  "immutableReferences": {},
  "source": "pragma solidity ^0.7.0;\n// SPDX-License-Identifier: MIT\n\ncontract Task {\n\n    // RELATED PARTIES\n    address public creator;\n    address public task_manager;\n    string public oracle;\n\n    // TASK DETAILS\n    uint256 public expires;\n    uint public reward;\n\n    // EXECUTION PARAMS\n    string public params;\n\n    // SELF DESTRUCTION EVENT\n    event destroyed();\n\n    // WHEN CREATED..\n    constructor(address _creator, string memory _oracle, uint _timelimit, uint _reward, string memory _params) {\n\n        // SET REFERENCES\n        creator = _creator;\n        task_manager = msg.sender;\n        oracle = _oracle;\n\n        // SET TASK DETAILS\n        expires = block.number + _timelimit;\n        reward = _reward;\n        params = _params;\n    }\n\n    // SELF DESTRUCT\n    function destroy() public {\n\n        // IF THE SENDER IS THE TASK MANAGER\n        require(msg.sender == task_manager, 'permission denied');\n        \n        // EMIT DESTRUCTION EVENT & SELF DESTRUCT\n        emit destroyed();\n        selfdestruct(address(uint160(address(this))));\n    }\n}",
  "sourcePath": "/project/contracts/task.sol",
  "compiler": {
    "name": "solc",
    "version": "0.7.6+commit.7338295f.Emscripten.clang"
  },
  "schemaVersion": "3.4.3",
  "updatedAt": "2021-11-03T11:25:00.478Z",
  "devdoc": {
    "kind": "dev",
    "methods": {},
    "version": 1
  },
  "userdoc": {
    "kind": "user",
    "methods": {},
    "version": 1
  }
}