{
  "contractName": "TaskManager",
  "abi": [
    {
      "anonymous": false,
      "inputs": [],
      "name": "modification",
      "type": "event"
    },
    {
      "anonymous": false,
      "inputs": [
        {
          "indexed": true,
          "internalType": "address",
          "name": "task",
          "type": "address"
        },
        {
          "indexed": false,
          "internalType": "string",
          "name": "data",
          "type": "string"
        }
      ],
      "name": "task_completed",
      "type": "event"
    },
    {
      "anonymous": false,
      "inputs": [
        {
          "indexed": true,
          "internalType": "address",
          "name": "task",
          "type": "address"
        }
      ],
      "name": "task_created",
      "type": "event"
    },
    {
      "anonymous": false,
      "inputs": [
        {
          "indexed": true,
          "internalType": "address",
          "name": "task",
          "type": "address"
        }
      ],
      "name": "task_retired",
      "type": "event"
    },
    {
      "inputs": [
        {
          "internalType": "address",
          "name": "",
          "type": "address"
        },
        {
          "internalType": "uint256",
          "name": "",
          "type": "uint256"
        }
      ],
      "name": "completed",
      "outputs": [
        {
          "internalType": "address",
          "name": "task",
          "type": "address"
        },
        {
          "internalType": "string",
          "name": "data",
          "type": "string"
        }
      ],
      "stateMutability": "view",
      "type": "function",
      "constant": true
    },
    {
      "inputs": [],
      "name": "fee",
      "outputs": [
        {
          "internalType": "uint256",
          "name": "",
          "type": "uint256"
        }
      ],
      "stateMutability": "view",
      "type": "function",
      "constant": true
    },
    {
      "inputs": [],
      "name": "initialized",
      "outputs": [
        {
          "internalType": "bool",
          "name": "",
          "type": "bool"
        }
      ],
      "stateMutability": "view",
      "type": "function",
      "constant": true
    },
    {
      "inputs": [],
      "name": "oracle_manager",
      "outputs": [
        {
          "internalType": "contract OracleManager",
          "name": "",
          "type": "address"
        }
      ],
      "stateMutability": "view",
      "type": "function",
      "constant": true
    },
    {
      "inputs": [
        {
          "internalType": "address",
          "name": "",
          "type": "address"
        },
        {
          "internalType": "uint256",
          "name": "",
          "type": "uint256"
        }
      ],
      "name": "pending",
      "outputs": [
        {
          "internalType": "address",
          "name": "",
          "type": "address"
        }
      ],
      "stateMutability": "view",
      "type": "function",
      "constant": true
    },
    {
      "inputs": [
        {
          "internalType": "address",
          "name": "",
          "type": "address"
        }
      ],
      "name": "tasks",
      "outputs": [
        {
          "internalType": "contract Task",
          "name": "",
          "type": "address"
        }
      ],
      "stateMutability": "view",
      "type": "function",
      "constant": true
    },
    {
      "inputs": [],
      "name": "token_manager",
      "outputs": [
        {
          "internalType": "contract TokenManager",
          "name": "",
          "type": "address"
        }
      ],
      "stateMutability": "view",
      "type": "function",
      "constant": true
    },
    {
      "inputs": [],
      "name": "user_manager",
      "outputs": [
        {
          "internalType": "contract UserManager",
          "name": "",
          "type": "address"
        }
      ],
      "stateMutability": "view",
      "type": "function",
      "constant": true
    },
    {
      "inputs": [
        {
          "internalType": "address",
          "name": "task",
          "type": "address"
        }
      ],
      "name": "fetch_task",
      "outputs": [
        {
          "internalType": "contract Task",
          "name": "",
          "type": "address"
        }
      ],
      "stateMutability": "view",
      "type": "function",
      "constant": true
    },
    {
      "inputs": [
        {
          "internalType": "address",
          "name": "user",
          "type": "address"
        }
      ],
      "name": "fetch_lists",
      "outputs": [
        {
          "internalType": "address[]",
          "name": "",
          "type": "address[]"
        },
        {
          "components": [
            {
              "internalType": "address",
              "name": "task",
              "type": "address"
            },
            {
              "internalType": "string",
              "name": "data",
              "type": "string"
            }
          ],
          "internalType": "struct TaskManager.result[]",
          "name": "",
          "type": "tuple[]"
        }
      ],
      "stateMutability": "view",
      "type": "function",
      "constant": true
    },
    {
      "inputs": [
        {
          "internalType": "string",
          "name": "_oracle",
          "type": "string"
        },
        {
          "internalType": "uint256",
          "name": "_reward",
          "type": "uint256"
        },
        {
          "internalType": "uint256",
          "name": "_timelimit",
          "type": "uint256"
        },
        {
          "internalType": "string",
          "name": "_params",
          "type": "string"
        }
      ],
      "name": "create",
      "outputs": [],
      "stateMutability": "nonpayable",
      "type": "function"
    },
    {
      "inputs": [
        {
          "internalType": "address",
          "name": "_task",
          "type": "address"
        },
        {
          "internalType": "string",
          "name": "_data",
          "type": "string"
        }
      ],
      "name": "complete",
      "outputs": [],
      "stateMutability": "nonpayable",
      "type": "function"
    },
    {
      "inputs": [
        {
          "internalType": "address",
          "name": "_task",
          "type": "address"
        }
      ],
      "name": "retire",
      "outputs": [],
      "stateMutability": "nonpayable",
      "type": "function"
    },
    {
      "inputs": [
        {
          "internalType": "uint256",
          "name": "_fee",
          "type": "uint256"
        },
        {
          "internalType": "address",
          "name": "_user_manager",
          "type": "address"
        },
        {
          "internalType": "address",
          "name": "_oracle_manager",
          "type": "address"
        },
        {
          "internalType": "address",
          "name": "_token_manager",
          "type": "address"
        }
      ],
      "name": "init",
      "outputs": [],
      "stateMutability": "nonpayable",
      "type": "function"
    },
    {
      "inputs": [
        {
          "internalType": "address",
          "name": "_task",
          "type": "address"
        }
      ],
      "name": "exists",
      "outputs": [
        {
          "internalType": "bool",
          "name": "",
          "type": "bool"
        }
      ],
      "stateMutability": "view",
      "type": "function",
      "constant": true
    }
  ],
  "bytecode": "0x60806040526004805460ff1916905534801561001a57600080fd5b50612cb88061002a6000396000f3fe60806040523480156200001157600080fd5b50600436106200010c5760003560e01c80639e6371ba11620000a5578063dc890da9116200006f578063dc890da91462000223578063ddca3f43146200023a578063f6a3d24e1462000253578063f772282c146200026a576200010c565b80639e6371ba14620001c45780639eeb67c414620001db578063aa995c2c14620001e5578063d8b2532a146200020c576200010c565b8063590be82211620000e7578063590be82214620001635780635a886d79146200016d57806377c237fd1462000186578063950a5545146200019d576200010c565b806315167c031462000111578063158ef93e146200014057806319a426631462000159575b600080fd5b620001286200012236600462001f86565b62000281565b6040516200013791906200216d565b60405180910390f35b6200014a620002ba565b604051620001379190620022da565b62000128620002c3565b62000128620002d2565b620001846200017e36600462002052565b620002e1565b005b620001286200019736600462001eed565b62000cd8565b620001b4620001ae36600462001eed565b62000cf3565b604051620001379291906200221a565b62000184620001d536600462001eed565b62000e7d565b6200012862001400565b620001fc620001f636600462001f86565b62001414565b60405162000137929190620021ec565b620001846200021d36600462001f32565b620014ea565b6200018462000234366004620020e6565b62001c48565b6200024462001ccc565b604051620001379190620022e5565b6200014a6200026436600462001eed565b62001cd2565b620001286200027b36600462001eed565b62001d07565b600160205281600052604060002081815481106200029e57600080fd5b6000918252602090912001546001600160a01b03169150829050565b60045460ff1681565b6006546001600160a01b031681565b6005546001600160a01b031681565b60045460ff166200030f5760405162461bcd60e51b81526004016200030690620024ef565b60405180910390fd5b60048054604051637b51e92760e11b81526101009091046001600160a01b03169163f6a3d24e9162000344913391016200216d565b60206040518083038186803b1580156200035d57600080fd5b505afa15801562000372573d6000803e3d6000fd5b505050506040513d601f19601f8201168201806040525081019062000398919062001fb4565b620003b75760405162461bcd60e51b815260040162000306906200245b565b60055460405163130d191f60e11b81526001600160a01b039091169063261a323e90620003e9908790600401620022ee565b60206040518083038186803b1580156200040257600080fd5b505afa15801562000417573d6000803e3d6000fd5b505050506040513d601f19601f820116820180604052508101906200043d919062001fb4565b6200045c5760405162461bcd60e51b8152600401620003069062002576565b600554604051631aef016b60e01b81526001600160a01b0390911690631aef016b906200048e908790600401620022ee565b60206040518083038186803b158015620004a757600080fd5b505afa158015620004bc573d6000803e3d6000fd5b505050506040513d601f19601f82011682018060405250810190620004e2919062001f13565b6001600160a01b03166302fb0c5e6040518163ffffffff1660e01b815260040160206040518083038186803b1580156200051b57600080fd5b505afa15801562000530573d6000803e3d6000fd5b505050506040513d601f19601f8201168201806040525081019062000556919062001fb4565b620005755760405162461bcd60e51b8152600401620003069062002424565b600554604051631aef016b60e01b81526000916001600160a01b031690631aef016b90620005a8908890600401620022ee565b60206040518083038186803b158015620005c157600080fd5b505afa158015620005d6573d6000803e3d6000fd5b505050506040513d601f19601f82011682018060405250810190620005fc919062001f13565b6001600160a01b031663a035b1fe6040518163ffffffff1660e01b815260040160206040518083038186803b1580156200063557600080fd5b505afa1580156200064a573d6000803e3d6000fd5b505050506040513d601f19601f82011682018060405250810190620006709190620020cd565b600554604051631aef016b60e01b81529192506000916001600160a01b0390911690631aef016b90620006a8908990600401620022ee565b60206040518083038186803b158015620006c157600080fd5b505afa158015620006d6573d6000803e3d6000fd5b505050506040513d601f19601f82011682018060405250810190620006fc919062001f13565b6001600160a01b0316638da5cb5b6040518163ffffffff1660e01b815260040160206040518083038186803b1580156200073557600080fd5b505afa1580156200074a573d6000803e3d6000fd5b505050506040513d601f19601f8201168201806040525081019062000770919062001f13565b905081851015620007955760405162461bcd60e51b8152600401620003069062002492565b336001600160a01b0382161415620008615760035460065460405163e3d670d760e01b815291870160028804019182916001600160a01b03169063e3d670d790620007e59086906004016200216d565b60206040518083038186803b158015620007fe57600080fd5b505afa15801562000813573d6000803e3d6000fd5b505050506040513d601f19601f82011682018060405250810190620008399190620020cd565b10156200085a5760405162461bcd60e51b8152600401620003069062002348565b50620009b9565b60035460065460405163e3d670d760e01b8152918701916001600160a01b039091169063e3d670d7906200089a9033906004016200216d565b60206040518083038186803b158015620008b357600080fd5b505afa158015620008c8573d6000803e3d6000fd5b505050506040513d601f19601f82011682018060405250810190620008ee9190620020cd565b10156200090f5760405162461bcd60e51b8152600401620003069062002348565b60065460405163e3d670d760e01b815260028704916001600160a01b03169063e3d670d790620009449085906004016200216d565b60206040518083038186803b1580156200095d57600080fd5b505afa15801562000972573d6000803e3d6000fd5b505050506040513d601f19601f82011682018060405250810190620009989190620020cd565b1015620009b95760405162461bcd60e51b8152600401620003069062002532565b600033878660028904890187604051620009d39062001ddc565b620009e395949392919062002181565b604051809103906000f08015801562000a00573d6000803e3d6000fd5b506001600160a01b0380821660008181526020818152604080832080546001600160a01b03199081168617909155338452600180845282852080549182018155855292909320909101805490921690921790556005549051631aef016b60e01b81529293501690631aef016b9062000a7d908a90600401620022ee565b60206040518083038186803b15801562000a9657600080fd5b505afa15801562000aab573d6000803e3d6000fd5b505050506040513d601f19601f8201168201806040525081019062000ad1919062001f13565b6001600160a01b031663176e8285826040518263ffffffff1660e01b815260040162000afe91906200216d565b600060405180830381600087803b15801562000b1957600080fd5b505af115801562000b2e573d6000803e3d6000fd5b5050600654600354604051636f3d98c760e01b81526001600160a01b039092169350636f3d98c7925062000b67913390600401620025da565b600060405180830381600087803b15801562000b8257600080fd5b505af115801562000b97573d6000803e3d6000fd5b505060065460405163ccb570e360e01b81526001600160a01b03909116925063ccb570e3915062000bd190899033903090600401620025f1565b600060405180830381600087803b15801562000bec57600080fd5b505af115801562000c01573d6000803e3d6000fd5b505060065460405163ccb570e360e01b81526001600160a01b03909116925063ccb570e3915062000c3e9060028a049086903090600401620025f1565b600060405180830381600087803b15801562000c5957600080fd5b505af115801562000c6e573d6000803e3d6000fd5b50506040516001600160a01b03841692507fe8118c541e823cd890d268e8d6479b626078437e054ed4213a2a89fa65d879ec9150600090a26040517f60a2a5991d9781a24cd2bcd88acc860a8334ef02efdad1c00fa914e64797926a90600090a150505050505050565b6000602081905290815260409020546001600160a01b031681565b6001600160a01b0381166000908152600160209081526040808320600283529281902083548251818502810185019093528083526060948594909391849183018282801562000d6c57602002820191906000526020600020905b81546001600160a01b0316815260019091019060200180831162000d4d575b5050505050915080805480602002602001604051908101604052809291908181526020016000905b8282101562000e6e576000848152602090819020604080518082018252600286810290930180546001600160a01b031682526001808201805485516101009382161593909302600019011695909504601f81018790048702820187019094528381529194909385820193909183018282801562000e555780601f1062000e295761010080835404028352916020019162000e55565b820191906000526020600020905b81548152906001019060200180831162000e3757829003601f168201915b5050505050815250508152602001906001019062000d94565b50505050905091509150915091565b62000e888162001cd2565b62000ea75760405162461bcd60e51b81526004016200030690620025ad565b600062000eb48262001d07565b9050806001600160a01b03166302d05d3f6040518163ffffffff1660e01b815260040160206040518083038186803b15801562000ef057600080fd5b505afa15801562000f05573d6000803e3d6000fd5b505050506040513d601f19601f8201168201806040525081019062000f2b919062001f13565b6001600160a01b0316336001600160a01b03161462000f5e5760405162461bcd60e51b81526004016200030690620023b6565b806001600160a01b031663b1cb0db36040518163ffffffff1660e01b815260040160206040518083038186803b15801562000f9857600080fd5b505afa15801562000fad573d6000803e3d6000fd5b505050506040513d601f19601f8201168201806040525081019062000fd39190620020cd565b431162000ff45760405162461bcd60e51b81526004016200030690620023ed565b600660009054906101000a90046001600160a01b03166001600160a01b031663ccb570e3826001600160a01b031663228cb7336040518163ffffffff1660e01b815260040160206040518083038186803b1580156200105257600080fd5b505afa15801562001067573d6000803e3d6000fd5b505050506040513d601f19601f820116820180604052508101906200108d9190620020cd565b30846001600160a01b03166302d05d3f6040518163ffffffff1660e01b815260040160206040518083038186803b158015620010c857600080fd5b505afa158015620010dd573d6000803e3d6000fd5b505050506040513d601f19601f8201168201806040525081019062001103919062001f13565b6040518463ffffffff1660e01b81526004016200112393929190620025f1565b600060405180830381600087803b1580156200113e57600080fd5b505af115801562001153573d6000803e3d6000fd5b50505050620011d7816001600160a01b03166302d05d3f6040518163ffffffff1660e01b815260040160206040518083038186803b1580156200119557600080fd5b505afa158015620011aa573d6000803e3d6000fd5b505050506040513d601f19601f82011682018060405250810190620011d0919062001f13565b8362001d25565b600560009054906101000a90046001600160a01b03166001600160a01b0316631aef016b826001600160a01b0316637dc0d1d06040518163ffffffff1660e01b815260040160006040518083038186803b1580156200123557600080fd5b505afa1580156200124a573d6000803e3d6000fd5b505050506040513d6000823e601f3d908101601f1916820160405262001274919081019062001fd6565b6040518263ffffffff1660e01b8152600401620012929190620022ee565b60206040518083038186803b158015620012ab57600080fd5b505afa158015620012c0573d6000803e3d6000fd5b505050506040513d601f19601f82011682018060405250810190620012e6919062001f13565b6001600160a01b031663d52cf8ba8360006040518363ffffffff1660e01b815260040162001316929190620021d3565b600060405180830381600087803b1580156200133157600080fd5b505af115801562001346573d6000803e3d6000fd5b50505050806001600160a01b03166383197ef06040518163ffffffff1660e01b8152600401600060405180830381600087803b1580156200138657600080fd5b505af11580156200139b573d6000803e3d6000fd5b50506040516001600160a01b03851692507f8f7be9063367a11f5a67948f966594a00413024cbcd04fddaf927c826e3142599150600090a26040517f60a2a5991d9781a24cd2bcd88acc860a8334ef02efdad1c00fa914e64797926a90600090a15050565b60045461010090046001600160a01b031681565b600260205281600052604060002081815481106200143157600080fd5b600091825260209182902060029182020180546001808301805460408051601f600019958416156101000295909501909216969096049283018790048702810187019095528185526001600160a01b0390921696509194509192830182828015620014e05780601f10620014b457610100808354040283529160200191620014e0565b820191906000526020600020905b815481529060010190602001808311620014c257829003601f168201915b5050505050905082565b620014f58262001cd2565b620015145760405162461bcd60e51b81526004016200030690620025ad565b6000620015218362001d07565b90506000816001600160a01b0316637dc0d1d06040518163ffffffff1660e01b815260040160006040518083038186803b1580156200155f57600080fd5b505afa15801562001574573d6000803e3d6000fd5b505050506040513d6000823e601f3d908101601f191682016040526200159e919081019062001fd6565b600554604051631aef016b60e01b81529192506000916001600160a01b0390911690631aef016b90620015d6908590600401620022ee565b60206040518083038186803b158015620015ef57600080fd5b505afa15801562001604573d6000803e3d6000fd5b505050506040513d601f19601f820116820180604052508101906200162a919062001f13565b6001600160a01b0316638da5cb5b6040518163ffffffff1660e01b815260040160206040518083038186803b1580156200166357600080fd5b505afa15801562001678573d6000803e3d6000fd5b505050506040513d601f19601f820116820180604052508101906200169e919062001f13565b9050336001600160a01b03821614620016cb5760405162461bcd60e51b815260040162000306906200237f565b620016d7338662001d25565b33600090815260026020818152604080842081518083019092526001600160a01b0388811683528284018a81528254600180820185559388529685902084519790960290950180546001600160a01b03191696909116959095178555925180519194936200174c939085019291019062001dea565b505050600660009054906101000a90046001600160a01b03166001600160a01b031663ccb570e3846001600160a01b031663228cb7336040518163ffffffff1660e01b815260040160206040518083038186803b158015620017ad57600080fd5b505afa158015620017c2573d6000803e3d6000fd5b505050506040513d601f19601f82011682018060405250810190620017e89190620020cd565b30846040518463ffffffff1660e01b81526004016200180a93929190620025f1565b600060405180830381600087803b1580156200182557600080fd5b505af11580156200183a573d6000803e3d6000fd5b50505050600460019054906101000a90046001600160a01b03166001600160a01b031663f109a0be846001600160a01b03166302d05d3f6040518163ffffffff1660e01b815260040160206040518083038186803b1580156200189c57600080fd5b505afa158015620018b1573d6000803e3d6000fd5b505050506040513d601f19601f82011682018060405250810190620018d7919062001f13565b6040518263ffffffff1660e01b8152600401620018f591906200216d565b60206040518083038186803b1580156200190e57600080fd5b505afa15801562001923573d6000803e3d6000fd5b505050506040513d601f19601f8201168201806040525081019062001949919062001f13565b6001600160a01b0316630184e95260016040518263ffffffff1660e01b8152600401620019779190620022e5565b600060405180830381600087803b1580156200199257600080fd5b505af1158015620019a7573d6000803e3d6000fd5b505060048054604051637884d05f60e11b81526101009091046001600160a01b0316935063f109a0be9250620019e0918591016200216d565b60206040518083038186803b158015620019f957600080fd5b505afa15801562001a0e573d6000803e3d6000fd5b505050506040513d601f19601f8201168201806040525081019062001a34919062001f13565b6001600160a01b0316630184e95260026040518263ffffffff1660e01b815260040162001a629190620022e5565b600060405180830381600087803b15801562001a7d57600080fd5b505af115801562001a92573d6000803e3d6000fd5b5050600554604051631aef016b60e01b81526001600160a01b039091169250631aef016b915062001ac8908590600401620022ee565b60206040518083038186803b15801562001ae157600080fd5b505afa15801562001af6573d6000803e3d6000fd5b505050506040513d601f19601f8201168201806040525081019062001b1c919062001f13565b6001600160a01b031663d52cf8ba8660016040518363ffffffff1660e01b815260040162001b4c929190620021d3565b600060405180830381600087803b15801562001b6757600080fd5b505af115801562001b7c573d6000803e3d6000fd5b50505050826001600160a01b03166383197ef06040518163ffffffff1660e01b8152600401600060405180830381600087803b15801562001bbc57600080fd5b505af115801562001bd1573d6000803e3d6000fd5b50505050846001600160a01b03167fe8f078afa6e59020e53952413d95408fd5bbe9a4de492439024c070f686242bf8560405162001c109190620022ee565b60405180910390a26040517f60a2a5991d9781a24cd2bcd88acc860a8334ef02efdad1c00fa914e64797926a90600090a15050505050565b60045460ff161562001c6e5760405162461bcd60e51b8152600401620003069062002303565b60039390935560048054600580546001600160a01b03199081166001600160a01b03958616179091556006805490911695841695909517909455610100600160a81b031990931661010092909116919091021760ff19166001179055565b60035481565b6001600160a01b038082166000908152602081905260408120549091161562001cfe5750600162001d02565b5060005b919050565b6001600160a01b039081166000908152602081905260409020541690565b60005b6001600160a01b03831660009081526001602052604090205481101562001dd7576001600160a01b0383811660009081526001602052604090208054918416918390811062001d7357fe5b6000918252602090912001546001600160a01b0316141562001dce576001600160a01b038316600090815260016020526040902080548290811062001db457fe5b600091825260209091200180546001600160a01b03191690555b60010162001d28565b505050565b6105de80620026a583390190565b828054600181600116156101000203166002900490600052602060002090601f01602090048101928262001e22576000855562001e6d565b82601f1062001e3d57805160ff191683800117855562001e6d565b8280016001018555821562001e6d579182015b8281111562001e6d57825182559160200191906001019062001e50565b5062001e7b92915062001e7f565b5090565b5b8082111562001e7b576000815560010162001e80565b600082601f83011262001ea7578081fd5b813562001ebe62001eb88262002635565b62002610565b81815284602083860101111562001ed3578283fd5b816020850160208301379081016020019190915292915050565b60006020828403121562001eff578081fd5b813562001f0c816200268b565b9392505050565b60006020828403121562001f25578081fd5b815162001f0c816200268b565b6000806040838503121562001f45578081fd5b823562001f52816200268b565b9150602083013567ffffffffffffffff81111562001f6e578182fd5b62001f7c8582860162001e96565b9150509250929050565b6000806040838503121562001f99578182fd5b823562001fa6816200268b565b946020939093013593505050565b60006020828403121562001fc6578081fd5b8151801515811462001f0c578182fd5b60006020828403121562001fe8578081fd5b815167ffffffffffffffff81111562001fff578182fd5b8201601f8101841362002010578182fd5b80516200202162001eb88262002635565b81815285602083850101111562002036578384fd5b6200204982602083016020860162002658565b95945050505050565b6000806000806080858703121562002068578182fd5b843567ffffffffffffffff8082111562002080578384fd5b6200208e8883890162001e96565b955060208701359450604087013593506060870135915080821115620020b2578283fd5b50620020c18782880162001e96565b91505092959194509250565b600060208284031215620020df578081fd5b5051919050565b60008060008060808587031215620020fc578384fd5b84359350602085013562002110816200268b565b9250604085013562002122816200268b565b9150606085013562002134816200268b565b939692955090935050565b600081518084526200215981602086016020860162002658565b601f01601f19169290920160200192915050565b6001600160a01b0391909116815260200190565b6001600160a01b038616815260a060208201819052600090620021a7908301876200213f565b8560408401528460608401528281036080840152620021c781856200213f565b98975050505050505050565b6001600160a01b03929092168252602082015260400190565b6001600160a01b038316815260406020820181905260009062002212908301846200213f565b949350505050565b60408082528351828201819052600091906020906060850190828801855b828110156200225f5781516001600160a01b03168452928401929084019060010162002238565b5050508481038286015285518082528282019080840283018401888501875b83811015620022ca57858303601f19018552815180516001600160a01b03168452870151878401899052620022b6898501826200213f565b95880195935050908601906001016200227e565b50909a9950505050505050505050565b901515815260200190565b90815260200190565b60006020825262001f0c60208301846200213f565b60208082526025908201527f636f6e74726163742068617320616c7265616479206265656e20696e697469616040820152641b1a5e995960da1b606082015260800190565b6020808252601c908201527f796f75206861766520696e73756666696369656e7420746f6b656e7300000000604082015260600190565b6020808252601d908201527f796f7520617265206e6f7420746865206f7261636c6573206f776e6572000000604082015260600190565b6020808252601c908201527f796f7520617265206e6f7420746865207461736b2063726561746f7200000000604082015260600190565b60208082526018908201527f7461736b20686173206e6f742065787069726564207965740000000000000000604082015260600190565b60208082526018908201527f746865206f7261636c65206973206e6f74206163746976650000000000000000604082015260600190565b60208082526019908201527f796f75206e65656420746f206265207265676973746572656400000000000000604082015260600190565b6020808252603e908201527f74686520726577617264206d75737420626520686967686572206f722065717560408201527f616c20746f20746865206f7261636c6573207365727669636520636f73740000606082015260800190565b60208082526023908201527f636f6e7472616374732068617665206e6f74206265656e20696e697469616c696040820152621e995960ea1b606082015260800190565b60208082526024908201527f6f7261636c65206f776e65722068617320696e73756666696369656e7420746f6040820152636b656e7360e01b606082015260800190565b60208082526019908201527f746865206f7261636c6520646f6573206e6f7420657869737400000000000000604082015260600190565b6020808252601390820152721d185cdac8191bd95cc81b9bdd08195e1a5cdd606a1b604082015260600190565b9182526001600160a01b0316602082015260400190565b9283526001600160a01b03918216602084015216604082015260600190565b60405181810167ffffffffffffffff811182821017156200262d57fe5b604052919050565b600067ffffffffffffffff8211156200264a57fe5b50601f01601f191660200190565b60005b83811015620026755781810151838201526020016200265b565b8381111562002685576000848401525b50505050565b6001600160a01b0381168114620026a157600080fd5b5056fe608060405234801561001057600080fd5b506040516105de3803806105de833981810160405260a081101561003357600080fd5b81516020830180516040519294929383019291908464010000000082111561005a57600080fd5b90830190602082018581111561006f57600080fd5b825164010000000081118282018810171561008957600080fd5b82525081516020918201929091019080838360005b838110156100b657818101518382015260200161009e565b50505050905090810190601f1680156100e35780820380516001836020036101000a031916815260200191505b5060408181526020830151908301516060909301805191959394929392918464010000000082111561011457600080fd5b90830190602082018581111561012957600080fd5b825164010000000081118282018810171561014357600080fd5b82525081516020918201929091019080838360005b83811015610170578181015183820152602001610158565b50505050905090810190601f16801561019d5780820380516001836020036101000a031916815260200191505b506040525050600080546001600160a01b0388166001600160a01b03199182161790915560018054909116331790555083516101e090600290602087019061020a565b50438301600355600482905580516101ff90600590602084019061020a565b5050505050506102ab565b828054600181600116156101000203166002900490600052602060002090601f0160209004810192826102405760008555610286565b82601f1061025957805160ff1916838001178555610286565b82800160010185558215610286579182015b8281111561028657825182559160200191906001019061026b565b50610292929150610296565b5090565b5b808211156102925760008155600101610297565b610324806102ba6000396000f3fe608060405234801561001057600080fd5b506004361061007d5760003560e01c806383197ef01161005b57806383197ef01461013d578063b17f7d3114610147578063b1cb0db31461014f578063cff0ab96146101575761007d565b806302d05d3f14610082578063228cb733146100a65780637dc0d1d0146100c0575b600080fd5b61008a61015f565b604080516001600160a01b039092168252519081900360200190f35b6100ae61016e565b60408051918252519081900360200190f35b6100c8610174565b6040805160208082528351818301528351919283929083019185019080838360005b838110156101025781810151838201526020016100ea565b50505050905090810190601f16801561012f5780820380516001836020036101000a031916815260200191505b509250505060405180910390f35b6101456101ff565b005b61008a61027e565b6100ae61028d565b6100c8610293565b6000546001600160a01b031681565b60045481565b6002805460408051602060018416156101000260001901909316849004601f810184900484028201840190925281815292918301828280156101f75780601f106101cc576101008083540402835291602001916101f7565b820191906000526020600020905b8154815290600101906020018083116101da57829003601f168201915b505050505081565b6001546001600160a01b03163314610252576040805162461bcd60e51b81526020600482015260116024820152701c195c9b5a5cdcda5bdb8819195b9a5959607a1b604482015290519081900360640190fd5b6040517f359cbbc9c3ef6ec29426251cbe0ff5aeae59b931acf6735d3987b6b54dc2cae690600090a130ff5b6001546001600160a01b031681565b60035481565b6005805460408051602060026001851615610100026000190190941693909304601f810184900484028201840190925281815292918301828280156101f75780601f106101cc576101008083540402835291602001916101f756fea26469706673582212206c0bf9d95972d1428aabc58c4e91dd43f453526a1f177c448b23fd36e4fd250f64736f6c63430007060033a264697066735822122076f30ee1d32c89daf682e31e78ecd70fe6559765607064367a1ab11afb70b65664736f6c63430007060033",
  "immutableReferences": {},
  "source": "pragma solidity ^0.7.0;\npragma experimental ABIEncoderV2;\n// SPDX-License-Identifier: MIT\n\n// IMPORT INTERFACE\nimport { Task } from './task.sol';\nimport { UserManager } from './user_manager.sol';\nimport { OracleManager } from './oracle_manager.sol';\nimport { TokenManager } from './token_manager.sol';\n\ncontract TaskManager {\n\n    // MAP OF ALL TASKS, [ADDRESS => CONTRACT]\n    mapping (address => Task) public tasks;\n    \n    // PENDING & COMPLETED TASKS FOR EACH USER -- REPLACED RESULTS\n    mapping (address => address[]) public pending;\n    mapping (address => result[]) public completed;\n\n    // TASK RESULT OBJECT\n    struct result {\n        address task;\n        string data;\n    }\n\n    // TOKEN FEE FOR TASK CREATION\n    uint public fee;\n\n    // INIT STATUS & MANAGER REFERENCES\n    bool public initialized = false;\n    UserManager public user_manager;\n    OracleManager public oracle_manager;\n    TokenManager public token_manager;\n\n    // MODIFICATION EVENTS\n    event task_created(address indexed task);\n    event task_completed(address indexed task, string data);\n    event task_retired(address indexed task);\n\n    // LEGACY EVENT, NEEDED FOR OLD distributed-task-manager UI\n    event modification();\n\n    // FETCH TASK\n    function fetch_task(address task) public view returns(Task) {\n        return tasks[task];\n    }\n\n    // FETCH USER RELATED TASK LISTS\n    function fetch_lists(address user) public view returns(address[] memory, result[] memory) {\n        return (pending[user], completed[user]);\n    }\n\n    // CREATE NEW TASK\n    function create(\n        string memory _oracle,\n        uint _reward,\n        uint _timelimit,\n        string memory _params\n    ) public {\n\n        // IF CONTRACT HAS BEEN INITIALIZED\n        // SENDER IS A REGISTERED USER\n        // ORACLE EXISTS\n        // ORACLE IS SET TO ACTIVE\n        require(initialized, 'contracts have not been initialized');\n        require(user_manager.exists(msg.sender), 'you need to be registered');\n        require(oracle_manager.exists(_oracle), 'the oracle does not exist');\n        require(oracle_manager.fetch_oracle(_oracle).active(), 'the oracle is not active');\n\n        // EXTRACT THE ORACLES OWNER & SERVICE PRICE\n        uint oracle_price = oracle_manager.fetch_oracle(_oracle).price();\n        address oracle_owner = oracle_manager.fetch_oracle(_oracle).owner();\n\n        // MAKE SURE THE PROVIDED REWARD IS SUFFICIENT\n        require(_reward >= oracle_price, 'the reward must be higher or equal to the oracles service cost');\n\n        // IF THE SENDER & ORACLE OWNER ARE THE SAME, \n        if (msg.sender == oracle_owner) {\n            uint total = _reward + fee + (_reward / 2);\n            require(token_manager.balance(oracle_owner) >= total, 'you have insufficient tokens');\n        \n        // OTHERWISE, CHECK THE BALANCE OF BOTH PARTICIPANTS\n        } else {\n            require(token_manager.balance(msg.sender) >= _reward + fee, 'you have insufficient tokens');\n            require(token_manager.balance(oracle_owner) >= _reward / 2, 'oracle owner has insufficient tokens');\n        }\n\n        // INSTANTIATE NEW TASK\n        Task task = new Task(\n            msg.sender,\n            _oracle,\n            _timelimit,\n            _reward + _reward / 2,\n            _params\n        );\n\n        // INDEX THE TASK & ADD TO PENDING\n        tasks[address(task)] = task;\n        pending[msg.sender].push(address(task));\n\n        // ASSIGN TASK TO THE DEVICE\n        oracle_manager.fetch_oracle(_oracle).assign_task(address(task));\n\n        // CONSUME TOKEN FEE FROM THE CREATOR\n        token_manager.consume(fee, msg.sender);\n\n        // SEIZE TOKENS FROM BOTH PARTIES\n        token_manager.transfer(_reward, msg.sender, address(this));\n        token_manager.transfer(_reward / 2, oracle_owner, address(this));\n\n        // EMIT CONTRACT MODIFIED EVENT\n        emit task_created(address(task));\n        // LEGACY EVENT, see declaration for details\n        emit modification();\n    }\n\n    // COMPLETE A TASK\n    function complete(address _task, string memory _data) public {\n\n        // IF THE TASK EXISTS\n        require(exists(_task), 'task does not exist');\n\n        // EXTRACT TASK & ORACLE INFO\n        Task task = fetch_task(_task);\n        string memory oracle = task.oracle();\n        address oracle_owner = oracle_manager.fetch_oracle(oracle).owner();\n\n        // IF THE DEVICE OWNER IS THE SENDER\n        require(msg.sender == oracle_owner, 'you are not the oracles owner');\n\n        // REMOVE FROM PENDING\n        clear_task(msg.sender, _task);\n\n        // SAVE IN COMPLETED\n        completed[msg.sender].push(result({\n            task: address(task),\n            data: _data\n        }));\n\n        // RELEASE SEIZED TOKEN REWARD\n        token_manager.transfer(\n            task.reward(),\n            address(this),\n            oracle_owner\n        );\n\n        // AWARD BOTH PARTIES WITH REPUTATION\n        user_manager.fetch(task.creator()).award(1);\n        user_manager.fetch(oracle_owner).award(2);\n\n        // REMOVE TASK FROM THE ORACLES BACKLOG\n        oracle_manager.fetch_oracle(oracle).clear_task(_task, 1);\n\n        // SELF DESTRUCT THE TASK\n        task.destroy();\n\n        // EMIT CONTRACT MODIFIED EVENT\n        emit task_completed(_task, _data);\n        // LEGACY EVENT, see declaration for details\n        emit modification();\n    }\n\n    // RETIRE AN INCOMPLETE TASK\n    function retire(address _task) public {\n\n        // IF THE TASK EXISTS\n        require(exists(_task), 'task does not exist');\n\n        // SHORTHAND FOR TASK\n        Task task = fetch_task(_task);\n\n        // IF THE TASK CREATOR IS THE SENDER\n        // IF THE TASK HAS EXPIRED\n        require(msg.sender == task.creator(), 'you are not the task creator');\n        require(block.number > task.expires(), 'task has not expired yet');\n\n        // RELEASED SEIZED TOKENS TO THE TASK CREATOR\n        token_manager.transfer(\n            task.reward(),\n            address(this),\n            task.creator()\n        );\n\n        // REMOVE TASK FROM PENDING\n        clear_task(task.creator(), _task);\n\n        // REMOVE TASK FROM THE ORACLES BACKLOG\n        oracle_manager.fetch_oracle(task.oracle()).clear_task(_task, 0);\n\n        // SELF DESTRUCT THE TASK\n        task.destroy();\n\n        // EMIT CONTRACT MODIFIED EVENT\n        emit task_retired(_task);\n        // LEGACY EVENT, see declaration for details\n        emit modification();\n    }\n\n    // INITIALIZE THE CONTRACT\n    function init(\n        uint _fee,\n        address _user_manager,\n        address _oracle_manager,\n        address _token_manager\n    ) public {\n\n        // IF THE CONTRACT HAS NOT BEEN INITIALIZED\n        require(!initialized, 'contract has already been initialized');\n\n        // SET TASK TOKEN FEE\n        fee = _fee;\n\n        // SET CONTRACT REFERENCES\n        user_manager = UserManager(_user_manager);\n        oracle_manager = OracleManager(_oracle_manager);\n        token_manager = TokenManager(_token_manager);\n\n        // BLOCK FURTHER MODIFICATION\n        initialized = true;\n    }\n\n    // CHECK IF TASK EXISTS\n    function exists(address _task) public view returns(bool) {\n        if (address(tasks[_task]) != 0x0000000000000000000000000000000000000000) {\n            return true;\n        } else {\n            return false;\n        }\n    }\n\n    // CLEAR TASK FROM PENDING\n    function clear_task(address user, address task) private {\n\n        // LOOP & FIND\n        for(uint index = 0; index < pending[user].length; index++) {\n            if (address(pending[user][index]) == task) {\n\n                // DELETE THE ASSIGNMENT & INCREMENT COMPLETED\n                delete pending[user][index];\n            }\n        }\n    }\n}",
  "sourcePath": "/project/contracts/task_manager.sol",
  "compiler": {
    "name": "solc",
    "version": "0.7.6+commit.7338295f.Emscripten.clang"
  },
  "schemaVersion": "3.4.3",
  "updatedAt": "2021-11-25T15:09:43.851Z",
  "networkType": "ethereum",
  "devdoc": {
    "kind": "dev",
    "methods": {},
    "version": 1
  },
  "userdoc": {
    "kind": "user",
    "methods": {},
    "version": 1
  }
}