{
  "contractName": "TokenManager",
  "abi": [
    {
      "anonymous": false,
      "inputs": [
        {
          "indexed": false,
          "internalType": "uint256",
          "name": "capacity",
          "type": "uint256"
        },
        {
          "indexed": false,
          "internalType": "uint256",
          "name": "sold",
          "type": "uint256"
        }
      ],
      "name": "changes",
      "type": "event"
    },
    {
      "inputs": [],
      "name": "capacity",
      "outputs": [
        {
          "internalType": "uint256",
          "name": "",
          "type": "uint256"
        }
      ],
      "stateMutability": "view",
      "type": "function"
    },
    {
      "inputs": [],
      "name": "initialized",
      "outputs": [
        {
          "internalType": "bool",
          "name": "",
          "type": "bool"
        }
      ],
      "stateMutability": "view",
      "type": "function"
    },
    {
      "inputs": [],
      "name": "price",
      "outputs": [
        {
          "internalType": "uint256",
          "name": "",
          "type": "uint256"
        }
      ],
      "stateMutability": "view",
      "type": "function"
    },
    {
      "inputs": [],
      "name": "sold",
      "outputs": [
        {
          "internalType": "uint256",
          "name": "",
          "type": "uint256"
        }
      ],
      "stateMutability": "view",
      "type": "function"
    },
    {
      "inputs": [],
      "name": "symbol",
      "outputs": [
        {
          "internalType": "string",
          "name": "",
          "type": "string"
        }
      ],
      "stateMutability": "view",
      "type": "function"
    },
    {
      "inputs": [],
      "name": "task_manager",
      "outputs": [
        {
          "internalType": "address",
          "name": "",
          "type": "address"
        }
      ],
      "stateMutability": "view",
      "type": "function"
    },
    {
      "inputs": [
        {
          "internalType": "address",
          "name": "",
          "type": "address"
        }
      ],
      "name": "tokens",
      "outputs": [
        {
          "internalType": "uint256",
          "name": "",
          "type": "uint256"
        }
      ],
      "stateMutability": "view",
      "type": "function"
    },
    {
      "inputs": [
        {
          "internalType": "address",
          "name": "user",
          "type": "address"
        }
      ],
      "name": "balance",
      "outputs": [
        {
          "internalType": "uint256",
          "name": "",
          "type": "uint256"
        }
      ],
      "stateMutability": "view",
      "type": "function"
    },
    {
      "inputs": [
        {
          "internalType": "uint256",
          "name": "amount",
          "type": "uint256"
        }
      ],
      "name": "purchase",
      "outputs": [],
      "stateMutability": "payable",
      "type": "function"
    },
    {
      "inputs": [
        {
          "internalType": "uint256",
          "name": "amount",
          "type": "uint256"
        },
        {
          "internalType": "address",
          "name": "user",
          "type": "address"
        }
      ],
      "name": "consume",
      "outputs": [],
      "stateMutability": "nonpayable",
      "type": "function"
    },
    {
      "inputs": [
        {
          "internalType": "uint256",
          "name": "amount",
          "type": "uint256"
        },
        {
          "internalType": "address",
          "name": "from",
          "type": "address"
        },
        {
          "internalType": "address",
          "name": "to",
          "type": "address"
        }
      ],
      "name": "transfer",
      "outputs": [],
      "stateMutability": "nonpayable",
      "type": "function"
    },
    {
      "inputs": [
        {
          "internalType": "string",
          "name": "_symbol",
          "type": "string"
        },
        {
          "internalType": "uint256",
          "name": "_price",
          "type": "uint256"
        },
        {
          "internalType": "uint256",
          "name": "_capacity",
          "type": "uint256"
        },
        {
          "internalType": "address",
          "name": "_task_manager",
          "type": "address"
        }
      ],
      "name": "init",
      "outputs": [],
      "stateMutability": "nonpayable",
      "type": "function"
    }
  ],
  "bytecode": "0x60806040526000600281905560038190556004556005805460ff1916905534801561002957600080fd5b50610b04806100396000396000f3fe6080604052600436106100a75760003560e01c8063a035b1fe11610064578063a035b1fe1461029d578063b17f7d31146102b2578063ccb570e3146102e3578063e3d670d714610324578063e486033914610357578063efef39a11461038a576100a7565b806302c7e7af146100ac578063158ef93e146100d357806338369744146100fc5780635cfc1a51146101c55780636f3d98c7146101da57806395d89b4114610213575b600080fd5b3480156100b857600080fd5b506100c16103a7565b60408051918252519081900360200190f35b3480156100df57600080fd5b506100e86103ad565b604080519115158252519081900360200190f35b34801561010857600080fd5b506101c36004803603608081101561011f57600080fd5b81019060208101813564010000000081111561013a57600080fd5b82018360208201111561014c57600080fd5b8035906020019184600183028401116401000000008311171561016e57600080fd5b91908080601f01602080910402602001604051908101604052809392919081815260200183838082843760009201919091525092955050823593505050602081013590604001356001600160a01b03166103b6565b005b3480156101d157600080fd5b506100c1610445565b3480156101e657600080fd5b506101c3600480360360408110156101fd57600080fd5b50803590602001356001600160a01b031661044b565b34801561021f57600080fd5b506102286105b7565b6040805160208082528351818301528351919283929083019185019080838360005b8381101561026257818101518382015260200161024a565b50505050905090810190601f16801561028f5780820380516001836020036101000a031916815260200191505b509250505060405180910390f35b3480156102a957600080fd5b506100c1610644565b3480156102be57600080fd5b506102c761064a565b604080516001600160a01b039092168252519081900360200190f35b3480156102ef57600080fd5b506101c36004803603606081101561030657600080fd5b508035906001600160a01b036020820135811691604001351661065e565b34801561033057600080fd5b506100c16004803603602081101561034757600080fd5b50356001600160a01b0316610809565b34801561036357600080fd5b506100c16004803603602081101561037a57600080fd5b50356001600160a01b0316610824565b6101c3600480360360208110156103a057600080fd5b5035610836565b60045481565b60055460ff1681565b60055460ff16156103f85760405162461bcd60e51b8152600401808060200182810382526025815260200180610a896025913960400191505060405180910390fd5b835161040b9060019060208701906109e7565b506002929092556003556005805460ff196001600160a01b0390931661010002610100600160a81b03199091161791909116600117905550565b60035481565b60055460ff1661048c5760405162461bcd60e51b8152600401808060200182810382526021815260200180610aae6021913960400191505060405180910390fd5b60055461010090046001600160a01b031633146104e4576040805162461bcd60e51b81526020600482015260116024820152701c195c9b5a5cdcda5bdb8819195b9a5959607a1b604482015290519081900360640190fd5b6001600160a01b0381166000908152602081905260409020548281039081111561054d576040805162461bcd60e51b81526020600482015260156024820152743a37b5b2b7103ab73232b9333637bb9032b93937b960591b604482015290519081900360640190fd5b6001600160a01b0382166000908152602081815260409182902080548690039055600480548690039081905560035483519081529182015281517f285763ecee65573cfc9f358e90de4b7844055849182021959a1209a2b140732d929181900390910190a1505050565b60018054604080516020600284861615610100026000190190941693909304601f8101849004840282018401909252818152929183018282801561063c5780601f106106115761010080835404028352916020019161063c565b820191906000526020600020905b81548152906001019060200180831161061f57829003601f168201915b505050505081565b60025481565b60055461010090046001600160a01b031681565b60055460ff1661069f5760405162461bcd60e51b8152600401808060200182810382526021815260200180610aae6021913960400191505060405180910390fd5b60055461010090046001600160a01b031633146106f7576040805162461bcd60e51b81526020600482015260116024820152701c195c9b5a5cdcda5bdb8819195b9a5959607a1b604482015290519081900360640190fd5b6001600160a01b038083166000818152602081905260408082205493851682528120549190528482039190850190821115610771576040805162461bcd60e51b81526020600482015260156024820152743a37b5b2b7103ab73232b9333637bb9032b93937b960591b604482015290519081900360640190fd5b6001600160a01b0383166000908152602081905260409020548110156107d5576040805162461bcd60e51b81526020600482015260146024820152733a37b5b2b71037bb32b9333637bb9032b93937b960611b604482015290519081900360640190fd5b50506001600160a01b0391821660009081526020819052604080822080548690039055919092168252902080549091019055565b6001600160a01b031660009081526020819052604090205490565b60006020819052908152604090205481565b60055460ff166108775760405162461bcd60e51b8152600401808060200182810382526021815260200180610aae6021913960400191505060405180910390fd5b600254810234146108cf576040805162461bcd60e51b815260206004820152601b60248201527f696e73756666696369656e742066756e64732070726f76696465640000000000604482015290519081900360640190fd5b6003546004548201111561092a576040805162461bcd60e51b815260206004820152601960248201527f74686520636170616369747920686173206265656e206d657400000000000000604482015290519081900360640190fd5b3360009081526020819052604090205480820190811015610989576040805162461bcd60e51b81526020600482015260146024820152733a37b5b2b71037bb32b9333637bb9032b93937b960611b604482015290519081900360640190fd5b33600090815260208181526040918290208054850190556004805485019081905560035483519081529182015281517f285763ecee65573cfc9f358e90de4b7844055849182021959a1209a2b140732d929181900390910190a15050565b828054600181600116156101000203166002900490600052602060002090601f016020900481019282610a1d5760008555610a63565b82601f10610a3657805160ff1916838001178555610a63565b82800160010185558215610a63579182015b82811115610a63578251825591602001919060010190610a48565b50610a6f929150610a73565b5090565b5b80821115610a6f5760008155600101610a7456fe636f6e74726163742068617320616c7265616479206265656e20696e697469616c697a6564636f6e747261637420686173206e6f74206265656e20696e697469616c697a6564a264697066735822122033e4fdeb1a04f139af08bf2061c76f107c6be15535f69a66e054f0d09a9a87f264736f6c63430007060033",
  "immutableReferences": {},
  "source": "pragma solidity ^0.7.0;\n// SPDX-License-Identifier: MIT\n\ncontract TokenManager {\n\n    // MAP OF TOKEN OWNERSHIP, [USER ADDRESS => AMOUNT]\n    mapping (address => uint) public tokens;\n\n    // TOKEN DETAILS\n    string public symbol;\n    uint public price = 0;\n    uint public capacity = 0;\n    uint public sold = 0;\n\n    // INIT STATUS & TASK MANAGER REFERENCE\n    bool public initialized = false;\n    address public task_manager;\n\n    // VALUE CHANGE EVENT\n    event changes(\n        uint capacity,\n        uint sold\n    );\n\n    // FETCH USER TOKEN BALANCE\n    function balance(address user) public view returns(uint) {\n        return tokens[user];\n    }\n\n    // PURCHASE TOKENS\n    function purchase(uint amount) public payable {\n\n        // IF THE CONTRACT HAS BEEN INITIALIZED\n        // IF THE SENDER HAS SUFFICIENT FUNDS\n        // IF THE CAPACITY HAS NOT BEEN MET\n        require(initialized, 'contract has not been initialized');\n        require(msg.value == amount * price, 'insufficient funds provided');\n        require(amount + sold <= capacity, 'the capacity has been met');\n\n        // FIX FOR OVERFLOW\n        uint sum = tokens[msg.sender] + amount;\n        require(sum >= tokens[msg.sender], 'token overflow error');\n\n        // INCREASE TOKEN COUNT FOR SENDER\n        tokens[msg.sender] += amount;\n\n        // INCREMENT SOLD\n        sold += amount;\n\n        // EMIT ASYNC EVENT\n        emit changes(capacity, sold);\n    }\n\n    // CONSUME USER TOKENS\n    function consume(uint amount, address user) public {\n\n        // IF THE CONTRACT HAS BEEN INITIALIZED\n        // IF THE CALLER IS THE TASK MANAGER\n        require(initialized, 'contract has not been initialized');\n        require(msg.sender == task_manager, 'permission denied');\n\n        // FIX FOR OVERFLOW\n        uint sum = tokens[user] - amount;\n        require(sum <= tokens[user], 'token underflow error');\n\n        // DECREASE TOKEN COUNT FOR USER\n        tokens[user] -= amount;\n\n        // MAKE TOKEN AVAILABLE FOR PURCHASE\n        sold -= amount;\n\n        // EMIT ASYNC EVENT\n        emit changes(capacity, sold);\n    }\n\n    // TRANSFER TOKEN TOKENS\n    function transfer(uint amount, address from, address to) public {\n\n        // IF THE CONTRACT HAS BEEN INITIALIZED\n        // IF THE SENDER HAS ENOUGH TOKENS TO TRANSFER\n        require(initialized, 'contract has not been initialized');\n        require(msg.sender == task_manager, 'permission denied');\n\n        // FIX FOR OVERFLOW & UNDERFLOW\n        uint sum_from = tokens[from] - amount;\n        uint sum_to = tokens[to] + amount;\n\n        // FIX FOR OVERFLOW/UNDERFLOW ISSUES\n        require(sum_from <= tokens[from], 'token underflow error');\n        require(sum_to >= tokens[to], 'token overflow error');\n\n        // REDUCE TOKENS FROM SENDER, THEN INCREASE THEM FOR USER\n        tokens[from] -= amount;\n        tokens[to] += amount;\n    }\n\n    // INITIALIZE THE CONTRACT\n    function init(\n        string memory _symbol,\n        uint _price,\n        uint _capacity,\n        address _task_manager\n    ) public {\n\n        // IF THE CONTRACT HAS NOT BEEN INITIALIZED BEFORE\n        require(!initialized, 'contract has already been initialized');\n\n        // SET TOKEN DETAILS\n        symbol = _symbol;\n        price = _price;\n        capacity = _capacity;\n\n        // SET ORACLE MANAGER REFERENCE\n        task_manager = _task_manager;\n\n        // BLOCK FURTHER MODIFICATIONS\n        initialized = true;\n    }\n}",
  "sourcePath": "/project/contracts/token_manager.sol",
  "compiler": {
    "name": "solc",
    "version": "0.7.6+commit.7338295f.Emscripten.clang"
  },
  "schemaVersion": "3.4.3",
  "updatedAt": "2021-11-03T11:25:00.503Z",
  "devdoc": {
    "kind": "dev",
    "methods": {},
    "version": 1
  },
  "userdoc": {
    "kind": "user",
    "methods": {},
    "version": 1
  }
}