{
  "contractName": "UserManager",
  "abi": [
    {
      "inputs": [],
      "name": "initialized",
      "outputs": [
        {
          "internalType": "bool",
          "name": "",
          "type": "bool"
        }
      ],
      "stateMutability": "view",
      "type": "function",
      "constant": true
    },
    {
      "inputs": [],
      "name": "task_manager",
      "outputs": [
        {
          "internalType": "address",
          "name": "",
          "type": "address"
        }
      ],
      "stateMutability": "view",
      "type": "function",
      "constant": true
    },
    {
      "inputs": [
        {
          "internalType": "address",
          "name": "",
          "type": "address"
        }
      ],
      "name": "users",
      "outputs": [
        {
          "internalType": "contract User",
          "name": "",
          "type": "address"
        }
      ],
      "stateMutability": "view",
      "type": "function",
      "constant": true
    },
    {
      "inputs": [
        {
          "internalType": "address",
          "name": "user",
          "type": "address"
        }
      ],
      "name": "fetch",
      "outputs": [
        {
          "internalType": "contract User",
          "name": "",
          "type": "address"
        }
      ],
      "stateMutability": "view",
      "type": "function",
      "constant": true
    },
    {
      "inputs": [],
      "name": "create",
      "outputs": [],
      "stateMutability": "nonpayable",
      "type": "function"
    },
    {
      "inputs": [
        {
          "internalType": "address",
          "name": "_task_manager",
          "type": "address"
        }
      ],
      "name": "init",
      "outputs": [],
      "stateMutability": "nonpayable",
      "type": "function"
    },
    {
      "inputs": [
        {
          "internalType": "address",
          "name": "user",
          "type": "address"
        }
      ],
      "name": "exists",
      "outputs": [
        {
          "internalType": "bool",
          "name": "",
          "type": "bool"
        }
      ],
      "stateMutability": "view",
      "type": "function",
      "constant": true
    }
  ],
  "bytecode": "0x60806040526001805460ff1916905534801561001a57600080fd5b506105ea8061002a6000396000f3fe608060405234801561001057600080fd5b506004361061007d5760003560e01c8063b17f7d311161005b578063b17f7d3114610108578063efc81a8c14610110578063f109a0be14610118578063f6a3d24e1461013e5761007d565b8063158ef93e1461008257806319ab453c1461009e578063a87430ba146100c6575b600080fd5b61008a610164565b604080519115158252519081900360200190f35b6100c4600480360360208110156100b457600080fd5b50356001600160a01b031661016d565b005b6100ec600480360360208110156100dc57600080fd5b50356001600160a01b03166101dd565b604080516001600160a01b039092168252519081900360200190f35b6100ec6101f8565b6100c461020c565b6100ec6004803603602081101561012e57600080fd5b50356001600160a01b0316610325565b61008a6004803603602081101561015457600080fd5b50356001600160a01b0316610346565b60015460ff1681565b60015460ff16156101af5760405162461bcd60e51b815260040180806020018281038252602581526020018061056f6025913960400191505060405180910390fd5b6001805460ff196001600160a01b0390931661010002610100600160a81b0319909116179190911681179055565b6000602081905290815260409020546001600160a01b031681565b60015461010090046001600160a01b031681565b60015460ff1661024d5760405162461bcd60e51b81526004018080602001828103825260218152602001806105946021913960400191505060405180910390fd5b61025633610346565b156102a8576040805162461bcd60e51b815260206004820152601c60248201527f77616c6c657420697320616c7265616479207265676973746572656400000000604482015290519081900360640190fd5b60018054906101000a90046001600160a01b03166040516102c890610378565b6001600160a01b03909116815260405190819003602001906000f0801580156102f5573d6000803e3d6000fd5b5033600090815260208190526040902080546001600160a01b0319166001600160a01b0392909216919091179055565b6001600160a01b03808216600090815260208190526040902054165b919050565b6001600160a01b038082166000908152602081905260408120549091161561037057506001610341565b506000610341565b6101e9806103868339019056fe60806040526001805534801561001457600080fd5b506040516101e93803806101e98339818101604052602081101561003757600080fd5b5051600080546001600160a01b039092166001600160a01b0319909216919091179055610180806100696000396000f3fe608060405234801561001057600080fd5b50600436106100415760003560e01c80630184e95214610046578063b17f7d3114610065578063c52164c614610089575b600080fd5b6100636004803603602081101561005c57600080fd5b50356100a3565b005b61006d610135565b604080516001600160a01b039092168252519081900360200190f35b610091610144565b60408051918252519081900360200190f35b6000546001600160a01b031633146100f6576040805162461bcd60e51b81526020600482015260116024820152701c195c9b5a5cdcda5bdb8819195b9a5959607a1b604482015290519081900360640190fd5b6001805482019081905560408051918252517f8e499ee3787d0961aad73f43870dcf4aec16f5c5f8ab1c739aa0b9f2e54c3eae9181900360200190a150565b6000546001600160a01b031681565b6001548156fea2646970667358221220feb07666eee974d68821e7d10761ca6b3a5c20c4f2e8b848d09ec549e417ef6164736f6c63430007060033636f6e74726163742068617320616c7265616479206265656e20696e697469616c697a6564636f6e747261637420686173206e6f74206265656e20696e697469616c697a6564a2646970667358221220a24485fa41f11151c1d642b9f646c25bb6da0c62436255f2888e41daa5b6929264736f6c63430007060033",
  "immutableReferences": {},
  "source": "pragma solidity ^0.7.0;\n// SPDX-License-Identifier: MIT\n\n// IMPORT INTERFACE\nimport { User } from './user.sol';\n\ncontract UserManager {\n\n    // MAP OF ALL USERS, [ADDRESS => INTERFACE]\n    mapping (address => User) public users;\n\n    // INIT STATUS & TASK MANAGER REFERENCE\n    bool public initialized = false;\n    address public task_manager;\n\n    // FETCH USER CONTRACT\n    function fetch(address user) public view returns(User) {\n        return users[user];\n    }\n\n    // CREATE NEW USER\n    function create() public {\n\n        // IF THE CONTRACT HAS BEEN INITIALIZED\n        // IF THE USER DOES NOT EXIST\n        require(initialized, 'contract has not been initialized');\n        require(!exists(msg.sender), 'wallet is already registered');\n\n        // PUSH ENTRY TO BOTH CONTAINERS\n        users[msg.sender] = new User(task_manager);\n    }\n\n    // INITIALIZE THE CONTRACT\n    function init(address _task_manager) public {\n\n        // IF THE CONTRACT HAS NOT BEEN INITIALIZED\n        require(!initialized, 'contract has already been initialized');\n\n        // SET REFERENCE & BLOCK FURTHER MODIFICATION\n        task_manager = _task_manager;\n        initialized = true;\n    }\n\n    // CHECK IF USER EXISTS\n    function exists(address user) public view returns(bool) {\n        if (address(users[user]) != 0x0000000000000000000000000000000000000000) {\n            return true;\n        } else {\n            return false;\n        }\n    }\n}",
  "sourcePath": "/project/contracts/user_manager.sol",
  "compiler": {
    "name": "solc",
    "version": "0.7.6+commit.7338295f.Emscripten.clang"
  },
  "schemaVersion": "3.4.3",
  "updatedAt": "2021-11-09T10:21:59.709Z",
  "networkType": "ethereum",
  "devdoc": {
    "kind": "dev",
    "methods": {},
    "version": 1
  },
  "userdoc": {
    "kind": "user",
    "methods": {},
    "version": 1
  }
}