{
  "contractName": "User",
  "abi": [
    {
      "inputs": [
        {
          "internalType": "address",
          "name": "_task_manager",
          "type": "address"
        }
      ],
      "stateMutability": "nonpayable",
      "type": "constructor"
    },
    {
      "anonymous": false,
      "inputs": [
        {
          "indexed": false,
          "internalType": "uint256",
          "name": "reputation",
          "type": "uint256"
        }
      ],
      "name": "awarded",
      "type": "event"
    },
    {
      "inputs": [],
      "name": "reputation",
      "outputs": [
        {
          "internalType": "uint256",
          "name": "",
          "type": "uint256"
        }
      ],
      "stateMutability": "view",
      "type": "function"
    },
    {
      "inputs": [],
      "name": "task_manager",
      "outputs": [
        {
          "internalType": "address",
          "name": "",
          "type": "address"
        }
      ],
      "stateMutability": "view",
      "type": "function"
    },
    {
      "inputs": [
        {
          "internalType": "uint256",
          "name": "amount",
          "type": "uint256"
        }
      ],
      "name": "award",
      "outputs": [],
      "stateMutability": "nonpayable",
      "type": "function"
    }
  ],
  "bytecode": "0x60806040526001805534801561001457600080fd5b506040516101e93803806101e98339818101604052602081101561003757600080fd5b5051600080546001600160a01b039092166001600160a01b0319909216919091179055610180806100696000396000f3fe608060405234801561001057600080fd5b50600436106100415760003560e01c80630184e95214610046578063b17f7d3114610065578063c52164c614610089575b600080fd5b6100636004803603602081101561005c57600080fd5b50356100a3565b005b61006d610135565b604080516001600160a01b039092168252519081900360200190f35b610091610144565b60408051918252519081900360200190f35b6000546001600160a01b031633146100f6576040805162461bcd60e51b81526020600482015260116024820152701c195c9b5a5cdcda5bdb8819195b9a5959607a1b604482015290519081900360640190fd5b6001805482019081905560408051918252517f8e499ee3787d0961aad73f43870dcf4aec16f5c5f8ab1c739aa0b9f2e54c3eae9181900360200190a150565b6000546001600160a01b031681565b6001548156fea2646970667358221220feb07666eee974d68821e7d10761ca6b3a5c20c4f2e8b848d09ec549e417ef6164736f6c63430007060033",
  "immutableReferences": {},
  "source": "pragma solidity ^0.7.0;\n// SPDX-License-Identifier: MIT\n\ncontract User {\n\n    // TASK MANAGER REFERENCE\n    address public task_manager;\n\n    // CURRENT REPUTATION & AWARD EVENT\n    uint public reputation = 1;\n    event awarded(uint reputation);\n\n    // WHEN CREATED, SET TASK MANAGER REFERENCE\n    constructor(address _task_manager) {\n        task_manager = _task_manager;\n    }\n\n    // INCREASE REPUTATION\n    function award(uint amount) public {\n\n        // IF SENDER IS THE TASK MANAGER\n        require(msg.sender == task_manager, 'permission denied');\n\n        // INCREASE BY AMOUNT\n        reputation += amount;\n\n        // EMIT ASYNC EVENT\n        emit awarded(reputation);\n    }\n}",
  "sourcePath": "/project/contracts/user.sol",
  "compiler": {
    "name": "solc",
    "version": "0.7.6+commit.7338295f.Emscripten.clang"
  },
  "schemaVersion": "3.4.3",
  "updatedAt": "2021-11-25T15:09:36.633Z",
  "devdoc": {
    "kind": "dev",
    "methods": {},
    "version": 1
  },
  "userdoc": {
    "kind": "user",
    "methods": {},
    "version": 1
  }
}